{"contracts/AuctionEngine.sol":{"AuctionEngine":{"abi":[{"inputs":[],"stateMutability":"nonpayable","type":"constructor"},{"anonymous":false,"inputs":[{"indexed":false,"internalType":"uint256","name":"index","type":"uint256"},{"indexed":false,"internalType":"string","name":"itemName","type":"string"},{"indexed":false,"internalType":"uint256","name":"startingPrice","type":"uint256"},{"indexed":false,"internalType":"uint256","name":"duration","type":"uint256"}],"name":"AuctionCreated","type":"event"},{"anonymous":false,"inputs":[{"indexed":false,"internalType":"uint256","name":"index","type":"uint256"},{"indexed":false,"internalType":"uint256","name":"finalPrice","type":"uint256"},{"indexed":false,"internalType":"address","name":"buyer","type":"address"}],"name":"AuctionEnded","type":"event"},{"inputs":[{"internalType":"uint256","name":"","type":"uint256"}],"name":"auctions","outputs":[{"internalType":"address payable","name":"seller","type":"address"},{"internalType":"uint256","name":"startingPrice","type":"uint256"},{"internalType":"uint256","name":"finalPrice","type":"uint256"},{"internalType":"uint256","name":"startAt","type":"uint256"},{"internalType":"uint256","name":"endsAt","type":"uint256"},{"internalType":"uint256","name":"discountRate","type":"uint256"},{"internalType":"string","name":"item","type":"string"},{"internalType":"bool","name":"stopped","type":"bool"}],"stateMutability":"view","type":"function"},{"inputs":[{"internalType":"uint256","name":"index","type":"uint256"}],"name":"buy","outputs":[],"stateMutability":"payable","type":"function"},{"inputs":[{"internalType":"uint256","name":"_startingPrice","type":"uint256"},{"internalType":"uint256","name":"_discountRate","type":"uint256"},{"internalType":"string","name":"_item","type":"string"},{"internalType":"uint256","name":"_duration","type":"uint256"}],"name":"createAuction","outputs":[],"stateMutability":"nonpayable","type":"function"},{"inputs":[{"internalType":"uint256","name":"index","type":"uint256"}],"name":"getPrice","outputs":[{"internalType":"uint256","name":"","type":"uint256"}],"stateMutability":"view","type":"function"},{"inputs":[],"name":"owner","outputs":[{"internalType":"address","name":"","type":"address"}],"stateMutability":"view","type":"function"}],"evm":{"bytecode":{"linkReferences":{},"object":"60806040523480156200001157600080fd5b50620000467f2f931546572529480fbf21ffbd047f0b15e4e1c9be57adc7e577c1a183d4872260001b620000f460201b60201c565b6200007a7feb5fad38bafa38f2f542de9471378365e92a7b6cbf425e5f0bbd345e1b9850c960001b620000f460201b60201c565b620000ae7fddbf2a4e1c94999f99ab9df5e90b57e8387df9cb074d7ef5761f887aee8ed5f560001b620000f460201b60201c565b336000806101000a81548173ffffffffffffffffffffffffffffffffffffffff021916908373ffffffffffffffffffffffffffffffffffffffff160217905550620000f7565b50565b611d7d80620001076000396000f3fe60806040526004361061004a5760003560e01c8063571a26a01461004f5780638da5cb5b14610093578063d96a094a146100be578063e7572230146100da578063e9835d1514610117575b600080fd5b34801561005b57600080fd5b5061007660048036038101906100719190611370565b610140565b60405161008a989796959493929190611498565b60405180910390f35b34801561009f57600080fd5b506100a861024d565b6040516100b5919061153e565b60405180910390f35b6100d860048036038101906100d39190611370565b610271565b005b3480156100e657600080fd5b5061010160048036038101906100fc9190611370565b610a86565b60405161010e9190611559565b60405180910390f35b34801561012357600080fd5b5061013e600480360381019061013991906115d9565b610eb2565b005b6001818154811061015057600080fd5b90600052602060002090600802016000915090508060000160009054906101000a900473ffffffffffffffffffffffffffffffffffffffff16908060010154908060020154908060030154908060040154908060050154908060060180546101b790611690565b80601f01602080910402602001604051908101604052809291908181526020018280546101e390611690565b80156102305780601f1061020557610100808354040283529160200191610230565b820191906000526020600020905b81548152906001019060200180831161021357829003601f168201915b5050505050908060070160009054906101000a900460ff16905088565b60008054906101000a900473ffffffffffffffffffffffffffffffffffffffff1681565b61029d7f4e434269b0372f46ed26d3b778ab007fe1b8882515fff781f8a8ccffad8c85ac60001b61132d565b6102c97fdfa7c79c014eeb1304b608d02fed166a650ca18183a40639d00d77073fe7416560001b61132d565b6102f57f29e69bf22108309540cbf5df8c41ea7db3d4b4f6370c18108f71efa55b29f5d360001b61132d565b60006001828154811061030b5761030a6116c1565b5b906000526020600020906008020190506103477f29b10f8907c55ad6cb4ab020a92dbcb64a13dec347c447ff462ad56705b1bdb760001b61132d565b6103737f2652615ccc5596c047efd356fc7d441e9e9fcfffb46d9de229f6d43a9917f70560001b61132d565b61039f7f0e8799bb849628d915c12f7902ef53faa76b17dbd4a31b0b4f127f2487200c6760001b61132d565b8060070160009054906101000a900460ff16156103f1576040517f08c379a00000000000000000000000000000000000000000000000000000000081526004016103e89061173c565b60405180910390fd5b61041d7f98f22c14c59c5e271dae12d6dfb87ab273f908b8124ddcbaf37ecbeef50c029860001b61132d565b6104497f446a6a420c64836a558b6e19e35a267bb67bc75c776a93cbc15938a2b893783260001b61132d565b6104757ffd9f7588f7ff7589a9c518272f9a0b9312499cdf3466147739e9f081e66b37df60001b61132d565b6104a17f7bbbef4eb5caff67e730e5922645a6f239f3647c5769b3b6b8ef03e68dae55a160001b61132d565b806004015442106104e7576040517f08c379a00000000000000000000000000000000000000000000000000000000081526004016104de906117a8565b60405180910390fd5b6105137ff2bfe8cb33e385bb772afecfc35aade736ba592a78eb11cc6a4d539294578a9b60001b61132d565b61053f7f7b701c74a5263d65e368f7f93ec29dc080101a00963714aa83c4913367c0530f60001b61132d565b61056b7f6a46686fd7036190771258be5551048dac5845dabc915e8a3a1b399233439e7c60001b61132d565b600061057683610a86565b90506105a47f0a06c7fe808da782360d657f4071bf36677873ab681d2e379e75dd603675914b60001b61132d565b6105d07f2d2de37eae7c48523b0d4e12991144d54d0122137404feede0578e8fb1dc956760001b61132d565b6105fc7f91ced6ed60444e82c62680aa4970fc5dc0d465970025ec014233bed64bb8beac60001b61132d565b8034101561063f576040517f08c379a000000000000000000000000000000000000000000000000000000000815260040161063690611814565b60405180910390fd5b61066b7f7c4a01b1437764b6319375885de8fc836ebfd7310843a01628e72946f4d8542760001b61132d565b6106977fcb0472756418f15d3e27dcaa8c8842eb660233fb8bcb73d515cf8a91e982a25960001b61132d565b6106c37f0c19d45d3859d4cf5e1374dbe04413573316f6c7b7a9cd8a264f58014d616d7960001b61132d565b60018260070160006101000a81548160ff02191690831515021790555061070c7fe50fc0aa2dec1b8719c9edeb7614112655a6aeacd4a00a14428c8f3611f9d94060001b61132d565b6107387fbc0d0fe0b3f3a7c203c27af50738e54cfad6f8d7dd9e77a046ea343a4ad4ad7760001b61132d565b80826002018190555061076d7f26ce1411cf20d68caf1aa692e5d1571f79ccc0ce9510d5387d9cd740ff0f4ee460001b61132d565b6107997ff0cd41ada4a8f52deff7370cb7b95a3609f087b1ec37b8f0cdf4c1c43a5b0dda60001b61132d565b600081346107a79190611863565b90506107d57f92bdf0f73426482a895cee8d0460d75bc487168ead92e6a82bf0710c2e490f3b60001b61132d565b6108017fd265cec6b6f69ee5ddf20edc38814f39f865ffac178cafb3e7da4d813f8bc6d960001b61132d565b60008111156108da576108367f4d03a1f2b45bc0e88baefe51f9d0c55468862a3f1d090c9e55d101f710bdbf4e60001b61132d565b6108627f9245f14802108f616b38ce8360b6b596ee27a34ec704b6950a540838004d938860001b61132d565b61088e7fa80c824b969077f2586e73ae78719eef004d6999db9f3ac6f76fdd83f1c5934160001b61132d565b3373ffffffffffffffffffffffffffffffffffffffff166108fc829081150290604051600060405180830381858888f193505050501580156108d4573d6000803e3d6000fd5b50610907565b6109067fac124cdabde6ecebd530615e5f9119ba9278a5159aaff477f4525e95a07c403860001b61132d565b5b6109337fc2460c92f31e1cb947a7e2f6c08a5db96e8a08846275f5eb3c0d7485f2af334260001b61132d565b61095f7f988d71b73d12f1d1bce7734bf4b635f0f5ddd22bc4268d63dd89debf6afb643c60001b61132d565b8260000160009054906101000a900473ffffffffffffffffffffffffffffffffffffffff1673ffffffffffffffffffffffffffffffffffffffff166108fc6064600a856109ac9190611897565b6109b69190611908565b846109c19190611863565b9081150290604051600060405180830381858888f193505050501580156109ec573d6000803e3d6000fd5b50610a197f058adbd9194ba68e86bf8ac85b733f4db444176a5655aafc7dbd7f95156816cf60001b61132d565b610a457f9d51177ad57e8e538847a8e16865375193d3cb7b4e8ed6946b11dca664ba429360001b61132d565b7fbafc4bda865d4d1f8d5b16f883e996fde0fe71112fac81503876d35375694400848333604051610a7893929190611939565b60405180910390a150505050565b6000610ab47faf9e706135e42ba205632d498d18e07a336b75685ee380bcba6870962209a1b860001b61132d565b610ae07f4cc0e869026f6c805b8c91d4172e9c8787fbda1eec685d5ebeb89adfc0d73da960001b61132d565b610b0c7f92c5a08dc3bb6e9710301d6c8d2d29fcc767e38431dce083fb58f684a5987e3160001b61132d565b600060018381548110610b2257610b216116c1565b5b9060005260206000209060080201604051806101000160405290816000820160009054906101000a900473ffffffffffffffffffffffffffffffffffffffff1673ffffffffffffffffffffffffffffffffffffffff1673ffffffffffffffffffffffffffffffffffffffff1681526020016001820154815260200160028201548152602001600382015481526020016004820154815260200160058201548152602001600682018054610bd490611690565b80601f0160208091040260200160405190810160405280929190818152602001828054610c0090611690565b8015610c4d5780601f10610c2257610100808354040283529160200191610c4d565b820191906000526020600020905b815481529060010190602001808311610c3057829003601f168201915b505050505081526020016007820160009054906101000a900460ff1615151515815250509050610c9f7ff1ce3f0d734c499f9abe6a89d1039ec5aed10af4b971bb33eb1c7436cf79007160001b61132d565b610ccb7fa420c6b9c4cc6794f4ab59462bf2760d0ec45961fcc51ab8ada7da510bff07b860001b61132d565b610cf77ff21bfd8261e780749bbc052493223117754c04a7e8cc125fddaeeb8b42b5531960001b61132d565b8060e0015115610d3c576040517f08c379a0000000000000000000000000000000000000000000000000000000008152600401610d339061173c565b60405180910390fd5b610d687f7de9ab5f3df2f400161690b58c3eb16ef15b47272ee5f652cd32b49f59c1862360001b61132d565b610d947fa3a803bc6f4e3e8124acf60c4caab1b424c304b64330d74d70b0bfe67da7f24760001b61132d565b610dc07fd543fce3371561f109c3d5344b9be8b5afb67361add7e5debde3b1fbb71a284260001b61132d565b6000816060015142610dd29190611863565b9050610e007f91984394b5bc42faee6b4f2359e2f8d4ae6a9737c9d1afa2d1420f61c839645f60001b61132d565b610e2c7f8e8b4ffa182d7031a0bad3c7a7f9c3384944320a3b47bfc6547b1904bab4066c60001b61132d565b6000818360a00151610e3e9190611897565b9050610e6c7f23aaa2f021b7acd02fcf74d0fdea661201d1a32f4d0282ea98a1bb75aee0532660001b61132d565b610e987f65bbf01186f8798095731e4a4d0c9ba13908df736ec782ef0cff4a5d2f599ba360001b61132d565b808360200151610ea89190611863565b9350505050919050565b610ede7f9026e3cdb294466185ea08e4e1ed08342571b3f644217a81fee99fdfa25e1fb960001b61132d565b610f0a7fb196ec2e4a7aeb2fde4afd9a6fcdbcc5c11297949d8b4613f5cfab75b2a9ac4f60001b61132d565b610f367f1eae5e863f06f889c7bf7fb5ffbcf63ce953bb81d00356bb0c2cb381dfb9c41b60001b61132d565b6000808214610f455781610f4a565b6202a3005b9050610f787f6b819679383c11f1aa3f0fd8f5c99e5147c4455fa661a9dafe904466b39e763b60001b61132d565b610fa47f82b9c24af1c34dd8970a9b363cb5a80ec100bde8f6bcb5c0af6cc23d1f397eb060001b61132d565b610fd07f7e9db4d0bed9c8eb9ab02580b9a7dfa0db69594c25578a7beb156a289d2cd6e760001b61132d565b8481610fdc9190611897565b86101561101e576040517f08c379a0000000000000000000000000000000000000000000000000000000008152600401611015906119bc565b60405180910390fd5b61104a7f94ab50f41d309f47cb6b6d41e0ba443848d8b281b14f1a7663b98dd6159942ca60001b61132d565b6110767f5920af103494845c4097213637c49a64ce1e95e93eddec6fd1d6e4dbd958f35160001b61132d565b6110a27f35f288f2e325d7fd0497790368823254b14f9c34f38846b35cfa9fdf6585a7cf60001b61132d565b60006040518061010001604052803373ffffffffffffffffffffffffffffffffffffffff16815260200188815260200188815260200142815260200183426110ea91906119dc565b815260200187815260200186868080601f016020809104026020016040519081016040528093929190818152602001838380828437600081840152601f19601f8201169050808301925050505050505081526020016000151581525090506111747f22384700e2e6263428cd5916ce61f0375c80149c23f363cbc2f60699323865d860001b61132d565b6111a07f074d0fea1e052bc53ac5a07c13ead4e486d45419425b9eb39486904b2278ac9660001b61132d565b600181908060018154018082558091505060019003906000526020600020906008020160009091909190915060008201518160000160006101000a81548173ffffffffffffffffffffffffffffffffffffffff021916908373ffffffffffffffffffffffffffffffffffffffff1602179055506020820151816001015560408201518160020155606082015181600301556080820151816004015560a0820151816005015560c082015181600601908161125a9190611beb565b5060e08201518160070160006101000a81548160ff02191690831515021790555050506112a97f75cf29b99e572432fa6671d67f7b863581d883e9bd1a8e7e6e32e02690ef820e60001b61132d565b6112d57f2951c5397705e84d7a308463deb8b02d84da7074c165a8679112b36fbbf1330060001b61132d565b7f5bf34ed94988e5dcdc7d1faaa54eb1d3b55f45d5f11457e235afb21a8ebbe73c600180805490506113079190611863565b86868a8660405161131c959493929190611cf9565b60405180910390a150505050505050565b50565b600080fd5b600080fd5b6000819050919050565b61134d8161133a565b811461135857600080fd5b50565b60008135905061136a81611344565b92915050565b60006020828403121561138657611385611330565b5b60006113948482850161135b565b91505092915050565b600073ffffffffffffffffffffffffffffffffffffffff82169050919050565b60006113c88261139d565b9050919050565b6113d8816113bd565b82525050565b6113e78161133a565b82525050565b600081519050919050565b600082825260208201905092915050565b60005b8381101561142757808201518184015260208101905061140c565b60008484015250505050565b6000601f19601f8301169050919050565b600061144f826113ed565b61145981856113f8565b9350611469818560208601611409565b61147281611433565b840191505092915050565b60008115159050919050565b6114928161147d565b82525050565b6000610100820190506114ae600083018b6113cf565b6114bb602083018a6113de565b6114c860408301896113de565b6114d560608301886113de565b6114e260808301876113de565b6114ef60a08301866113de565b81810360c08301526115018185611444565b905061151060e0830184611489565b9998505050505050505050565b60006115288261139d565b9050919050565b6115388161151d565b82525050565b6000602082019050611553600083018461152f565b92915050565b600060208201905061156e60008301846113de565b92915050565b600080fd5b600080fd5b600080fd5b60008083601f84011261159957611598611574565b5b8235905067ffffffffffffffff8111156115b6576115b5611579565b5b6020830191508360018202830111156115d2576115d161157e565b5b9250929050565b6000806000806000608086880312156115f5576115f4611330565b5b60006116038882890161135b565b95505060206116148882890161135b565b945050604086013567ffffffffffffffff81111561163557611634611335565b5b61164188828901611583565b935093505060606116548882890161135b565b9150509295509295909350565b7f4e487b7100000000000000000000000000000000000000000000000000000000600052602260045260246000fd5b600060028204905060018216806116a857607f821691505b6020821081036116bb576116ba611661565b5b50919050565b7f4e487b7100000000000000000000000000000000000000000000000000000000600052603260045260246000fd5b7f61756374696f6e206861732073746f7070656400000000000000000000000000600082015250565b60006117266013836113f8565b9150611731826116f0565b602082019050919050565b6000602082019050818103600083015261175581611719565b9050919050565b7f656e646564000000000000000000000000000000000000000000000000000000600082015250565b60006117926005836113f8565b915061179d8261175c565b602082019050919050565b600060208201905081810360008301526117c181611785565b9050919050565b7f6e6f7420656e6f756768206d6f6e657900000000000000000000000000000000600082015250565b60006117fe6010836113f8565b9150611809826117c8565b602082019050919050565b6000602082019050818103600083015261182d816117f1565b9050919050565b7f4e487b7100000000000000000000000000000000000000000000000000000000600052601160045260246000fd5b600061186e8261133a565b91506118798361133a565b925082820390508181111561189157611890611834565b5b92915050565b60006118a28261133a565b91506118ad8361133a565b92508282026118bb8161133a565b915082820484148315176118d2576118d1611834565b5b5092915050565b7f4e487b7100000000000000000000000000000000000000000000000000000000600052601260045260246000fd5b60006119138261133a565b915061191e8361133a565b92508261192e5761192d6118d9565b5b828204905092915050565b600060608201905061194e60008301866113de565b61195b60208301856113de565b611968604083018461152f565b949350505050565b7f696e636f7272656374207374617274696e672070726963650000000000000000600082015250565b60006119a66018836113f8565b91506119b182611970565b602082019050919050565b600060208201905081810360008301526119d581611999565b9050919050565b60006119e78261133a565b91506119f28361133a565b9250828201905080821115611a0a57611a09611834565b5b92915050565b7f4e487b7100000000000000000000000000000000000000000000000000000000600052604160045260246000fd5b60008190508160005260206000209050919050565b60006020601f8301049050919050565b600082821b905092915050565b600060088302611aa17fffffffffffffffffffffffffffffffffffffffffffffffffffffffffffffffff82611a64565b611aab8683611a64565b95508019841693508086168417925050509392505050565b6000819050919050565b6000611ae8611ae3611ade8461133a565b611ac3565b61133a565b9050919050565b6000819050919050565b611b0283611acd565b611b16611b0e82611aef565b848454611a71565b825550505050565b600090565b611b2b611b1e565b611b36818484611af9565b505050565b5b81811015611b5a57611b4f600082611b23565b600181019050611b3c565b5050565b601f821115611b9f57611b7081611a3f565b611b7984611a54565b81016020851015611b88578190505b611b9c611b9485611a54565b830182611b3b565b50505b505050565b600082821c905092915050565b6000611bc260001984600802611ba4565b1980831691505092915050565b6000611bdb8383611bb1565b9150826002028217905092915050565b611bf4826113ed565b67ffffffffffffffff811115611c0d57611c0c611a10565b5b611c178254611690565b611c22828285611b5e565b600060209050601f831160018114611c555760008415611c43578287015190505b611c4d8582611bcf565b865550611cb5565b601f198416611c6386611a3f565b60005b82811015611c8b57848901518255600182019150602085019450602081019050611c66565b86831015611ca85784890151611ca4601f891682611bb1565b8355505b6001600288020188555050505b505050505050565b82818337600083830152505050565b6000611cd883856113f8565b9350611ce5838584611cbd565b611cee83611433565b840190509392505050565b6000608082019050611d0e60008301886113de565b8181036020830152611d21818688611ccc565b9050611d3060408301856113de565b611d3d60608301846113de565b969550505050505056fea264697066735822122058b8c280bd6d5b508ffc88fcf48430131e8521d7b748a449d3e1d0e2a744938264736f6c63430008130033","opcodes":"PUSH1 0x80 PUSH1 0x40 MSTORE CALLVALUE DUP1 ISZERO PUSH3 0x11 JUMPI PUSH1 0x0 DUP1 REVERT JUMPDEST POP PUSH3 0x46 PUSH32 0x2F931546572529480FBF21FFBD047F0B15E4E1C9BE57ADC7E577C1A183D48722 PUSH1 0x0 SHL PUSH3 0xF4 PUSH1 0x20 SHL PUSH1 0x20 SHR JUMP JUMPDEST PUSH3 0x7A PUSH32 0xEB5FAD38BAFA38F2F542DE9471378365E92A7B6CBF425E5F0BBD345E1B9850C9 PUSH1 0x0 SHL PUSH3 0xF4 PUSH1 0x20 SHL PUSH1 0x20 SHR JUMP JUMPDEST PUSH3 0xAE PUSH32 0xDDBF2A4E1C94999F99AB9DF5E90B57E8387DF9CB074D7EF5761F887AEE8ED5F5 PUSH1 0x0 SHL PUSH3 0xF4 PUSH1 0x20 SHL PUSH1 0x20 SHR JUMP JUMPDEST CALLER PUSH1 0x0 DUP1 PUSH2 0x100 EXP DUP2 SLOAD DUP2 PUSH20 0xFFFFFFFFFFFFFFFFFFFFFFFFFFFFFFFFFFFFFFFF MUL NOT AND SWAP1 DUP4 PUSH20 0xFFFFFFFFFFFFFFFFFFFFFFFFFFFFFFFFFFFFFFFF AND MUL OR SWAP1 SSTORE POP PUSH3 0xF7 JUMP JUMPDEST POP JUMP JUMPDEST PUSH2 0x1D7D DUP1 PUSH3 0x107 PUSH1 0x0 CODECOPY PUSH1 0x0 RETURN INVALID PUSH1 0x80 PUSH1 0x40 MSTORE PUSH1 0x4 CALLDATASIZE LT PUSH2 0x4A JUMPI PUSH1 0x0 CALLDATALOAD PUSH1 0xE0 SHR DUP1 PUSH4 0x571A26A0 EQ PUSH2 0x4F JUMPI DUP1 PUSH4 0x8DA5CB5B EQ PUSH2 0x93 JUMPI DUP1 PUSH4 0xD96A094A EQ PUSH2 0xBE JUMPI DUP1 PUSH4 0xE7572230 EQ PUSH2 0xDA JUMPI DUP1 PUSH4 0xE9835D15 EQ PUSH2 0x117 JUMPI JUMPDEST PUSH1 0x0 DUP1 REVERT JUMPDEST CALLVALUE DUP1 ISZERO PUSH2 0x5B JUMPI PUSH1 0x0 DUP1 REVERT JUMPDEST POP PUSH2 0x76 PUSH1 0x4 DUP1 CALLDATASIZE SUB DUP2 ADD SWAP1 PUSH2 0x71 SWAP2 SWAP1 PUSH2 0x1370 JUMP JUMPDEST PUSH2 0x140 JUMP JUMPDEST PUSH1 0x40 MLOAD PUSH2 0x8A SWAP9 SWAP8 SWAP7 SWAP6 SWAP5 SWAP4 SWAP3 SWAP2 SWAP1 PUSH2 0x1498 JUMP JUMPDEST PUSH1 0x40 MLOAD DUP1 SWAP2 SUB SWAP1 RETURN JUMPDEST CALLVALUE DUP1 ISZERO PUSH2 0x9F JUMPI PUSH1 0x0 DUP1 REVERT JUMPDEST POP PUSH2 0xA8 PUSH2 0x24D JUMP JUMPDEST PUSH1 0x40 MLOAD PUSH2 0xB5 SWAP2 SWAP1 PUSH2 0x153E JUMP JUMPDEST PUSH1 0x40 MLOAD DUP1 SWAP2 SUB SWAP1 RETURN JUMPDEST PUSH2 0xD8 PUSH1 0x4 DUP1 CALLDATASIZE SUB DUP2 ADD SWAP1 PUSH2 0xD3 SWAP2 SWAP1 PUSH2 0x1370 JUMP JUMPDEST PUSH2 0x271 JUMP JUMPDEST STOP JUMPDEST CALLVALUE DUP1 ISZERO PUSH2 0xE6 JUMPI PUSH1 0x0 DUP1 REVERT JUMPDEST POP PUSH2 0x101 PUSH1 0x4 DUP1 CALLDATASIZE SUB DUP2 ADD SWAP1 PUSH2 0xFC SWAP2 SWAP1 PUSH2 0x1370 JUMP JUMPDEST PUSH2 0xA86 JUMP JUMPDEST PUSH1 0x40 MLOAD PUSH2 0x10E SWAP2 SWAP1 PUSH2 0x1559 JUMP JUMPDEST PUSH1 0x40 MLOAD DUP1 SWAP2 SUB SWAP1 RETURN JUMPDEST CALLVALUE DUP1 ISZERO PUSH2 0x123 JUMPI PUSH1 0x0 DUP1 REVERT JUMPDEST POP PUSH2 0x13E PUSH1 0x4 DUP1 CALLDATASIZE SUB DUP2 ADD SWAP1 PUSH2 0x139 SWAP2 SWAP1 PUSH2 0x15D9 JUMP JUMPDEST PUSH2 0xEB2 JUMP JUMPDEST STOP JUMPDEST PUSH1 0x1 DUP2 DUP2 SLOAD DUP2 LT PUSH2 0x150 JUMPI PUSH1 0x0 DUP1 REVERT JUMPDEST SWAP1 PUSH1 0x0 MSTORE PUSH1 0x20 PUSH1 0x0 KECCAK256 SWAP1 PUSH1 0x8 MUL ADD PUSH1 0x0 SWAP2 POP SWAP1 POP DUP1 PUSH1 0x0 ADD PUSH1 0x0 SWAP1 SLOAD SWAP1 PUSH2 0x100 EXP SWAP1 DIV PUSH20 0xFFFFFFFFFFFFFFFFFFFFFFFFFFFFFFFFFFFFFFFF AND SWAP1 DUP1 PUSH1 0x1 ADD SLOAD SWAP1 DUP1 PUSH1 0x2 ADD SLOAD SWAP1 DUP1 PUSH1 0x3 ADD SLOAD SWAP1 DUP1 PUSH1 0x4 ADD SLOAD SWAP1 DUP1 PUSH1 0x5 ADD SLOAD SWAP1 DUP1 PUSH1 0x6 ADD DUP1 SLOAD PUSH2 0x1B7 SWAP1 PUSH2 0x1690 JUMP JUMPDEST DUP1 PUSH1 0x1F ADD PUSH1 0x20 DUP1 SWAP2 DIV MUL PUSH1 0x20 ADD PUSH1 0x40 MLOAD SWAP1 DUP2 ADD PUSH1 0x40 MSTORE DUP1 SWAP3 SWAP2 SWAP1 DUP2 DUP2 MSTORE PUSH1 0x20 ADD DUP3 DUP1 SLOAD PUSH2 0x1E3 SWAP1 PUSH2 0x1690 JUMP JUMPDEST DUP1 ISZERO PUSH2 0x230 JUMPI DUP1 PUSH1 0x1F LT PUSH2 0x205 JUMPI PUSH2 0x100 DUP1 DUP4 SLOAD DIV MUL DUP4 MSTORE SWAP2 PUSH1 0x20 ADD SWAP2 PUSH2 0x230 JUMP JUMPDEST DUP3 ADD SWAP2 SWAP1 PUSH1 0x0 MSTORE PUSH1 0x20 PUSH1 0x0 KECCAK256 SWAP1 JUMPDEST DUP2 SLOAD DUP2 MSTORE SWAP1 PUSH1 0x1 ADD SWAP1 PUSH1 0x20 ADD DUP1 DUP4 GT PUSH2 0x213 JUMPI DUP3 SWAP1 SUB PUSH1 0x1F AND DUP3 ADD SWAP2 JUMPDEST POP POP POP POP POP SWAP1 DUP1 PUSH1 0x7 ADD PUSH1 0x0 SWAP1 SLOAD SWAP1 PUSH2 0x100 EXP SWAP1 DIV PUSH1 0xFF AND SWAP1 POP DUP9 JUMP JUMPDEST PUSH1 0x0 DUP1 SLOAD SWAP1 PUSH2 0x100 EXP SWAP1 DIV PUSH20 0xFFFFFFFFFFFFFFFFFFFFFFFFFFFFFFFFFFFFFFFF AND DUP2 JUMP JUMPDEST PUSH2 0x29D PUSH32 0x4E434269B0372F46ED26D3B778AB007FE1B8882515FFF781F8A8CCFFAD8C85AC PUSH1 0x0 SHL PUSH2 0x132D JUMP JUMPDEST PUSH2 0x2C9 PUSH32 0xDFA7C79C014EEB1304B608D02FED166A650CA18183A40639D00D77073FE74165 PUSH1 0x0 SHL PUSH2 0x132D JUMP JUMPDEST PUSH2 0x2F5 PUSH32 0x29E69BF22108309540CBF5DF8C41EA7DB3D4B4F6370C18108F71EFA55B29F5D3 PUSH1 0x0 SHL PUSH2 0x132D JUMP JUMPDEST PUSH1 0x0 PUSH1 0x1 DUP3 DUP2 SLOAD DUP2 LT PUSH2 0x30B JUMPI PUSH2 0x30A PUSH2 0x16C1 JUMP JUMPDEST JUMPDEST SWAP1 PUSH1 0x0 MSTORE PUSH1 0x20 PUSH1 0x0 KECCAK256 SWAP1 PUSH1 0x8 MUL ADD SWAP1 POP PUSH2 0x347 PUSH32 0x29B10F8907C55AD6CB4AB020A92DBCB64A13DEC347C447FF462AD56705B1BDB7 PUSH1 0x0 SHL PUSH2 0x132D JUMP JUMPDEST PUSH2 0x373 PUSH32 0x2652615CCC5596C047EFD356FC7D441E9E9FCFFFB46D9DE229F6D43A9917F705 PUSH1 0x0 SHL PUSH2 0x132D JUMP JUMPDEST PUSH2 0x39F PUSH32 0xE8799BB849628D915C12F7902EF53FAA76B17DBD4A31B0B4F127F2487200C67 PUSH1 0x0 SHL PUSH2 0x132D JUMP JUMPDEST DUP1 PUSH1 0x7 ADD PUSH1 0x0 SWAP1 SLOAD SWAP1 PUSH2 0x100 EXP SWAP1 DIV PUSH1 0xFF AND ISZERO PUSH2 0x3F1 JUMPI PUSH1 0x40 MLOAD PUSH32 0x8C379A000000000000000000000000000000000000000000000000000000000 DUP2 MSTORE PUSH1 0x4 ADD PUSH2 0x3E8 SWAP1 PUSH2 0x173C JUMP JUMPDEST PUSH1 0x40 MLOAD DUP1 SWAP2 SUB SWAP1 REVERT JUMPDEST PUSH2 0x41D PUSH32 0x98F22C14C59C5E271DAE12D6DFB87AB273F908B8124DDCBAF37ECBEEF50C0298 PUSH1 0x0 SHL PUSH2 0x132D JUMP JUMPDEST PUSH2 0x449 PUSH32 0x446A6A420C64836A558B6E19E35A267BB67BC75C776A93CBC15938A2B8937832 PUSH1 0x0 SHL PUSH2 0x132D JUMP JUMPDEST PUSH2 0x475 PUSH32 0xFD9F7588F7FF7589A9C518272F9A0B9312499CDF3466147739E9F081E66B37DF PUSH1 0x0 SHL PUSH2 0x132D JUMP JUMPDEST PUSH2 0x4A1 PUSH32 0x7BBBEF4EB5CAFF67E730E5922645A6F239F3647C5769B3B6B8EF03E68DAE55A1 PUSH1 0x0 SHL PUSH2 0x132D JUMP JUMPDEST DUP1 PUSH1 0x4 ADD SLOAD TIMESTAMP LT PUSH2 0x4E7 JUMPI PUSH1 0x40 MLOAD PUSH32 0x8C379A000000000000000000000000000000000000000000000000000000000 DUP2 MSTORE PUSH1 0x4 ADD PUSH2 0x4DE SWAP1 PUSH2 0x17A8 JUMP JUMPDEST PUSH1 0x40 MLOAD DUP1 SWAP2 SUB SWAP1 REVERT JUMPDEST PUSH2 0x513 PUSH32 0xF2BFE8CB33E385BB772AFECFC35AADE736BA592A78EB11CC6A4D539294578A9B PUSH1 0x0 SHL PUSH2 0x132D JUMP JUMPDEST PUSH2 0x53F PUSH32 0x7B701C74A5263D65E368F7F93EC29DC080101A00963714AA83C4913367C0530F PUSH1 0x0 SHL PUSH2 0x132D JUMP JUMPDEST PUSH2 0x56B PUSH32 0x6A46686FD7036190771258BE5551048DAC5845DABC915E8A3A1B399233439E7C PUSH1 0x0 SHL PUSH2 0x132D JUMP JUMPDEST PUSH1 0x0 PUSH2 0x576 DUP4 PUSH2 0xA86 JUMP JUMPDEST SWAP1 POP PUSH2 0x5A4 PUSH32 0xA06C7FE808DA782360D657F4071BF36677873AB681D2E379E75DD603675914B PUSH1 0x0 SHL PUSH2 0x132D JUMP JUMPDEST PUSH2 0x5D0 PUSH32 0x2D2DE37EAE7C48523B0D4E12991144D54D0122137404FEEDE0578E8FB1DC9567 PUSH1 0x0 SHL PUSH2 0x132D JUMP JUMPDEST PUSH2 0x5FC PUSH32 0x91CED6ED60444E82C62680AA4970FC5DC0D465970025EC014233BED64BB8BEAC PUSH1 0x0 SHL PUSH2 0x132D JUMP JUMPDEST DUP1 CALLVALUE LT ISZERO PUSH2 0x63F JUMPI PUSH1 0x40 MLOAD PUSH32 0x8C379A000000000000000000000000000000000000000000000000000000000 DUP2 MSTORE PUSH1 0x4 ADD PUSH2 0x636 SWAP1 PUSH2 0x1814 JUMP JUMPDEST PUSH1 0x40 MLOAD DUP1 SWAP2 SUB SWAP1 REVERT JUMPDEST PUSH2 0x66B PUSH32 0x7C4A01B1437764B6319375885DE8FC836EBFD7310843A01628E72946F4D85427 PUSH1 0x0 SHL PUSH2 0x132D JUMP JUMPDEST PUSH2 0x697 PUSH32 0xCB0472756418F15D3E27DCAA8C8842EB660233FB8BCB73D515CF8A91E982A259 PUSH1 0x0 SHL PUSH2 0x132D JUMP JUMPDEST PUSH2 0x6C3 PUSH32 0xC19D45D3859D4CF5E1374DBE04413573316F6C7B7A9CD8A264F58014D616D79 PUSH1 0x0 SHL PUSH2 0x132D JUMP JUMPDEST PUSH1 0x1 DUP3 PUSH1 0x7 ADD PUSH1 0x0 PUSH2 0x100 EXP DUP2 SLOAD DUP2 PUSH1 0xFF MUL NOT AND SWAP1 DUP4 ISZERO ISZERO MUL OR SWAP1 SSTORE POP PUSH2 0x70C PUSH32 0xE50FC0AA2DEC1B8719C9EDEB7614112655A6AEACD4A00A14428C8F3611F9D940 PUSH1 0x0 SHL PUSH2 0x132D JUMP JUMPDEST PUSH2 0x738 PUSH32 0xBC0D0FE0B3F3A7C203C27AF50738E54CFAD6F8D7DD9E77A046EA343A4AD4AD77 PUSH1 0x0 SHL PUSH2 0x132D JUMP JUMPDEST DUP1 DUP3 PUSH1 0x2 ADD DUP2 SWAP1 SSTORE POP PUSH2 0x76D PUSH32 0x26CE1411CF20D68CAF1AA692E5D1571F79CCC0CE9510D5387D9CD740FF0F4EE4 PUSH1 0x0 SHL PUSH2 0x132D JUMP JUMPDEST PUSH2 0x799 PUSH32 0xF0CD41ADA4A8F52DEFF7370CB7B95A3609F087B1EC37B8F0CDF4C1C43A5B0DDA PUSH1 0x0 SHL PUSH2 0x132D JUMP JUMPDEST PUSH1 0x0 DUP2 CALLVALUE PUSH2 0x7A7 SWAP2 SWAP1 PUSH2 0x1863 JUMP JUMPDEST SWAP1 POP PUSH2 0x7D5 PUSH32 0x92BDF0F73426482A895CEE8D0460D75BC487168EAD92E6A82BF0710C2E490F3B PUSH1 0x0 SHL PUSH2 0x132D JUMP JUMPDEST PUSH2 0x801 PUSH32 0xD265CEC6B6F69EE5DDF20EDC38814F39F865FFAC178CAFB3E7DA4D813F8BC6D9 PUSH1 0x0 SHL PUSH2 0x132D JUMP JUMPDEST PUSH1 0x0 DUP2 GT ISZERO PUSH2 0x8DA JUMPI PUSH2 0x836 PUSH32 0x4D03A1F2B45BC0E88BAEFE51F9D0C55468862A3F1D090C9E55D101F710BDBF4E PUSH1 0x0 SHL PUSH2 0x132D JUMP JUMPDEST PUSH2 0x862 PUSH32 0x9245F14802108F616B38CE8360B6B596EE27A34EC704B6950A540838004D9388 PUSH1 0x0 SHL PUSH2 0x132D JUMP JUMPDEST PUSH2 0x88E PUSH32 0xA80C824B969077F2586E73AE78719EEF004D6999DB9F3AC6F76FDD83F1C59341 PUSH1 0x0 SHL PUSH2 0x132D JUMP JUMPDEST CALLER PUSH20 0xFFFFFFFFFFFFFFFFFFFFFFFFFFFFFFFFFFFFFFFF AND PUSH2 0x8FC DUP3 SWAP1 DUP2 ISZERO MUL SWAP1 PUSH1 0x40 MLOAD PUSH1 0x0 PUSH1 0x40 MLOAD DUP1 DUP4 SUB DUP2 DUP6 DUP9 DUP9 CALL SWAP4 POP POP POP POP ISZERO DUP1 ISZERO PUSH2 0x8D4 JUMPI RETURNDATASIZE PUSH1 0x0 DUP1 RETURNDATACOPY RETURNDATASIZE PUSH1 0x0 REVERT JUMPDEST POP PUSH2 0x907 JUMP JUMPDEST PUSH2 0x906 PUSH32 0xAC124CDABDE6ECEBD530615E5F9119BA9278A5159AAFF477F4525E95A07C4038 PUSH1 0x0 SHL PUSH2 0x132D JUMP JUMPDEST JUMPDEST PUSH2 0x933 PUSH32 0xC2460C92F31E1CB947A7E2F6C08A5DB96E8A08846275F5EB3C0D7485F2AF3342 PUSH1 0x0 SHL PUSH2 0x132D JUMP JUMPDEST PUSH2 0x95F PUSH32 0x988D71B73D12F1D1BCE7734BF4B635F0F5DDD22BC4268D63DD89DEBF6AFB643C PUSH1 0x0 SHL PUSH2 0x132D JUMP JUMPDEST DUP3 PUSH1 0x0 ADD PUSH1 0x0 SWAP1 SLOAD SWAP1 PUSH2 0x100 EXP SWAP1 DIV PUSH20 0xFFFFFFFFFFFFFFFFFFFFFFFFFFFFFFFFFFFFFFFF AND PUSH20 0xFFFFFFFFFFFFFFFFFFFFFFFFFFFFFFFFFFFFFFFF AND PUSH2 0x8FC PUSH1 0x64 PUSH1 0xA DUP6 PUSH2 0x9AC SWAP2 SWAP1 PUSH2 0x1897 JUMP JUMPDEST PUSH2 0x9B6 SWAP2 SWAP1 PUSH2 0x1908 JUMP JUMPDEST DUP5 PUSH2 0x9C1 SWAP2 SWAP1 PUSH2 0x1863 JUMP JUMPDEST SWAP1 DUP2 ISZERO MUL SWAP1 PUSH1 0x40 MLOAD PUSH1 0x0 PUSH1 0x40 MLOAD DUP1 DUP4 SUB DUP2 DUP6 DUP9 DUP9 CALL SWAP4 POP POP POP POP ISZERO DUP1 ISZERO PUSH2 0x9EC JUMPI RETURNDATASIZE PUSH1 0x0 DUP1 RETURNDATACOPY RETURNDATASIZE PUSH1 0x0 REVERT JUMPDEST POP PUSH2 0xA19 PUSH32 0x58ADBD9194BA68E86BF8AC85B733F4DB444176A5655AAFC7DBD7F95156816CF PUSH1 0x0 SHL PUSH2 0x132D JUMP JUMPDEST PUSH2 0xA45 PUSH32 0x9D51177AD57E8E538847A8E16865375193D3CB7B4E8ED6946B11DCA664BA4293 PUSH1 0x0 SHL PUSH2 0x132D JUMP JUMPDEST PUSH32 0xBAFC4BDA865D4D1F8D5B16F883E996FDE0FE71112FAC81503876D35375694400 DUP5 DUP4 CALLER PUSH1 0x40 MLOAD PUSH2 0xA78 SWAP4 SWAP3 SWAP2 SWAP1 PUSH2 0x1939 JUMP JUMPDEST PUSH1 0x40 MLOAD DUP1 SWAP2 SUB SWAP1 LOG1 POP POP POP POP JUMP JUMPDEST PUSH1 0x0 PUSH2 0xAB4 PUSH32 0xAF9E706135E42BA205632D498D18E07A336B75685EE380BCBA6870962209A1B8 PUSH1 0x0 SHL PUSH2 0x132D JUMP JUMPDEST PUSH2 0xAE0 PUSH32 0x4CC0E869026F6C805B8C91D4172E9C8787FBDA1EEC685D5EBEB89ADFC0D73DA9 PUSH1 0x0 SHL PUSH2 0x132D JUMP JUMPDEST PUSH2 0xB0C PUSH32 0x92C5A08DC3BB6E9710301D6C8D2D29FCC767E38431DCE083FB58F684A5987E31 PUSH1 0x0 SHL PUSH2 0x132D JUMP JUMPDEST PUSH1 0x0 PUSH1 0x1 DUP4 DUP2 SLOAD DUP2 LT PUSH2 0xB22 JUMPI PUSH2 0xB21 PUSH2 0x16C1 JUMP JUMPDEST JUMPDEST SWAP1 PUSH1 0x0 MSTORE PUSH1 0x20 PUSH1 0x0 KECCAK256 SWAP1 PUSH1 0x8 MUL ADD PUSH1 0x40 MLOAD DUP1 PUSH2 0x100 ADD PUSH1 0x40 MSTORE SWAP1 DUP2 PUSH1 0x0 DUP3 ADD PUSH1 0x0 SWAP1 SLOAD SWAP1 PUSH2 0x100 EXP SWAP1 DIV PUSH20 0xFFFFFFFFFFFFFFFFFFFFFFFFFFFFFFFFFFFFFFFF AND PUSH20 0xFFFFFFFFFFFFFFFFFFFFFFFFFFFFFFFFFFFFFFFF AND PUSH20 0xFFFFFFFFFFFFFFFFFFFFFFFFFFFFFFFFFFFFFFFF AND DUP2 MSTORE PUSH1 0x20 ADD PUSH1 0x1 DUP3 ADD SLOAD DUP2 MSTORE PUSH1 0x20 ADD PUSH1 0x2 DUP3 ADD SLOAD DUP2 MSTORE PUSH1 0x20 ADD PUSH1 0x3 DUP3 ADD SLOAD DUP2 MSTORE PUSH1 0x20 ADD PUSH1 0x4 DUP3 ADD SLOAD DUP2 MSTORE PUSH1 0x20 ADD PUSH1 0x5 DUP3 ADD SLOAD DUP2 MSTORE PUSH1 0x20 ADD PUSH1 0x6 DUP3 ADD DUP1 SLOAD PUSH2 0xBD4 SWAP1 PUSH2 0x1690 JUMP JUMPDEST DUP1 PUSH1 0x1F ADD PUSH1 0x20 DUP1 SWAP2 DIV MUL PUSH1 0x20 ADD PUSH1 0x40 MLOAD SWAP1 DUP2 ADD PUSH1 0x40 MSTORE DUP1 SWAP3 SWAP2 SWAP1 DUP2 DUP2 MSTORE PUSH1 0x20 ADD DUP3 DUP1 SLOAD PUSH2 0xC00 SWAP1 PUSH2 0x1690 JUMP JUMPDEST DUP1 ISZERO PUSH2 0xC4D JUMPI DUP1 PUSH1 0x1F LT PUSH2 0xC22 JUMPI PUSH2 0x100 DUP1 DUP4 SLOAD DIV MUL DUP4 MSTORE SWAP2 PUSH1 0x20 ADD SWAP2 PUSH2 0xC4D JUMP JUMPDEST DUP3 ADD SWAP2 SWAP1 PUSH1 0x0 MSTORE PUSH1 0x20 PUSH1 0x0 KECCAK256 SWAP1 JUMPDEST DUP2 SLOAD DUP2 MSTORE SWAP1 PUSH1 0x1 ADD SWAP1 PUSH1 0x20 ADD DUP1 DUP4 GT PUSH2 0xC30 JUMPI DUP3 SWAP1 SUB PUSH1 0x1F AND DUP3 ADD SWAP2 JUMPDEST POP POP POP POP POP DUP2 MSTORE PUSH1 0x20 ADD PUSH1 0x7 DUP3 ADD PUSH1 0x0 SWAP1 SLOAD SWAP1 PUSH2 0x100 EXP SWAP1 DIV PUSH1 0xFF AND ISZERO ISZERO ISZERO ISZERO DUP2 MSTORE POP POP SWAP1 POP PUSH2 0xC9F PUSH32 0xF1CE3F0D734C499F9ABE6A89D1039EC5AED10AF4B971BB33EB1C7436CF790071 PUSH1 0x0 SHL PUSH2 0x132D JUMP JUMPDEST PUSH2 0xCCB PUSH32 0xA420C6B9C4CC6794F4AB59462BF2760D0EC45961FCC51AB8ADA7DA510BFF07B8 PUSH1 0x0 SHL PUSH2 0x132D JUMP JUMPDEST PUSH2 0xCF7 PUSH32 0xF21BFD8261E780749BBC052493223117754C04A7E8CC125FDDAEEB8B42B55319 PUSH1 0x0 SHL PUSH2 0x132D JUMP JUMPDEST DUP1 PUSH1 0xE0 ADD MLOAD ISZERO PUSH2 0xD3C JUMPI PUSH1 0x40 MLOAD PUSH32 0x8C379A000000000000000000000000000000000000000000000000000000000 DUP2 MSTORE PUSH1 0x4 ADD PUSH2 0xD33 SWAP1 PUSH2 0x173C JUMP JUMPDEST PUSH1 0x40 MLOAD DUP1 SWAP2 SUB SWAP1 REVERT JUMPDEST PUSH2 0xD68 PUSH32 0x7DE9AB5F3DF2F400161690B58C3EB16EF15B47272EE5F652CD32B49F59C18623 PUSH1 0x0 SHL PUSH2 0x132D JUMP JUMPDEST PUSH2 0xD94 PUSH32 0xA3A803BC6F4E3E8124ACF60C4CAAB1B424C304B64330D74D70B0BFE67DA7F247 PUSH1 0x0 SHL PUSH2 0x132D JUMP JUMPDEST PUSH2 0xDC0 PUSH32 0xD543FCE3371561F109C3D5344B9BE8B5AFB67361ADD7E5DEBDE3B1FBB71A2842 PUSH1 0x0 SHL PUSH2 0x132D JUMP JUMPDEST PUSH1 0x0 DUP2 PUSH1 0x60 ADD MLOAD TIMESTAMP PUSH2 0xDD2 SWAP2 SWAP1 PUSH2 0x1863 JUMP JUMPDEST SWAP1 POP PUSH2 0xE00 PUSH32 0x91984394B5BC42FAEE6B4F2359E2F8D4AE6A9737C9D1AFA2D1420F61C839645F PUSH1 0x0 SHL PUSH2 0x132D JUMP JUMPDEST PUSH2 0xE2C PUSH32 0x8E8B4FFA182D7031A0BAD3C7A7F9C3384944320A3B47BFC6547B1904BAB4066C PUSH1 0x0 SHL PUSH2 0x132D JUMP JUMPDEST PUSH1 0x0 DUP2 DUP4 PUSH1 0xA0 ADD MLOAD PUSH2 0xE3E SWAP2 SWAP1 PUSH2 0x1897 JUMP JUMPDEST SWAP1 POP PUSH2 0xE6C PUSH32 0x23AAA2F021B7ACD02FCF74D0FDEA661201D1A32F4D0282EA98A1BB75AEE05326 PUSH1 0x0 SHL PUSH2 0x132D JUMP JUMPDEST PUSH2 0xE98 PUSH32 0x65BBF01186F8798095731E4A4D0C9BA13908DF736EC782EF0CFF4A5D2F599BA3 PUSH1 0x0 SHL PUSH2 0x132D JUMP JUMPDEST DUP1 DUP4 PUSH1 0x20 ADD MLOAD PUSH2 0xEA8 SWAP2 SWAP1 PUSH2 0x1863 JUMP JUMPDEST SWAP4 POP POP POP POP SWAP2 SWAP1 POP JUMP JUMPDEST PUSH2 0xEDE PUSH32 0x9026E3CDB294466185EA08E4E1ED08342571B3F644217A81FEE99FDFA25E1FB9 PUSH1 0x0 SHL PUSH2 0x132D JUMP JUMPDEST PUSH2 0xF0A PUSH32 0xB196EC2E4A7AEB2FDE4AFD9A6FCDBCC5C11297949D8B4613F5CFAB75B2A9AC4F PUSH1 0x0 SHL PUSH2 0x132D JUMP JUMPDEST PUSH2 0xF36 PUSH32 0x1EAE5E863F06F889C7BF7FB5FFBCF63CE953BB81D00356BB0C2CB381DFB9C41B PUSH1 0x0 SHL PUSH2 0x132D JUMP JUMPDEST PUSH1 0x0 DUP1 DUP3 EQ PUSH2 0xF45 JUMPI DUP2 PUSH2 0xF4A JUMP JUMPDEST PUSH3 0x2A300 JUMPDEST SWAP1 POP PUSH2 0xF78 PUSH32 0x6B819679383C11F1AA3F0FD8F5C99E5147C4455FA661A9DAFE904466B39E763B PUSH1 0x0 SHL PUSH2 0x132D JUMP JUMPDEST PUSH2 0xFA4 PUSH32 0x82B9C24AF1C34DD8970A9B363CB5A80EC100BDE8F6BCB5C0AF6CC23D1F397EB0 PUSH1 0x0 SHL PUSH2 0x132D JUMP JUMPDEST PUSH2 0xFD0 PUSH32 0x7E9DB4D0BED9C8EB9AB02580B9A7DFA0DB69594C25578A7BEB156A289D2CD6E7 PUSH1 0x0 SHL PUSH2 0x132D JUMP JUMPDEST DUP5 DUP2 PUSH2 0xFDC SWAP2 SWAP1 PUSH2 0x1897 JUMP JUMPDEST DUP7 LT ISZERO PUSH2 0x101E JUMPI PUSH1 0x40 MLOAD PUSH32 0x8C379A000000000000000000000000000000000000000000000000000000000 DUP2 MSTORE PUSH1 0x4 ADD PUSH2 0x1015 SWAP1 PUSH2 0x19BC JUMP JUMPDEST PUSH1 0x40 MLOAD DUP1 SWAP2 SUB SWAP1 REVERT JUMPDEST PUSH2 0x104A PUSH32 0x94AB50F41D309F47CB6B6D41E0BA443848D8B281B14F1A7663B98DD6159942CA PUSH1 0x0 SHL PUSH2 0x132D JUMP JUMPDEST PUSH2 0x1076 PUSH32 0x5920AF103494845C4097213637C49A64CE1E95E93EDDEC6FD1D6E4DBD958F351 PUSH1 0x0 SHL PUSH2 0x132D JUMP JUMPDEST PUSH2 0x10A2 PUSH32 0x35F288F2E325D7FD0497790368823254B14F9C34F38846B35CFA9FDF6585A7CF PUSH1 0x0 SHL PUSH2 0x132D JUMP JUMPDEST PUSH1 0x0 PUSH1 0x40 MLOAD DUP1 PUSH2 0x100 ADD PUSH1 0x40 MSTORE DUP1 CALLER PUSH20 0xFFFFFFFFFFFFFFFFFFFFFFFFFFFFFFFFFFFFFFFF AND DUP2 MSTORE PUSH1 0x20 ADD DUP9 DUP2 MSTORE PUSH1 0x20 ADD DUP9 DUP2 MSTORE PUSH1 0x20 ADD TIMESTAMP DUP2 MSTORE PUSH1 0x20 ADD DUP4 TIMESTAMP PUSH2 0x10EA SWAP2 SWAP1 PUSH2 0x19DC JUMP JUMPDEST DUP2 MSTORE PUSH1 0x20 ADD DUP8 DUP2 MSTORE PUSH1 0x20 ADD DUP7 DUP7 DUP1 DUP1 PUSH1 0x1F ADD PUSH1 0x20 DUP1 SWAP2 DIV MUL PUSH1 0x20 ADD PUSH1 0x40 MLOAD SWAP1 DUP2 ADD PUSH1 0x40 MSTORE DUP1 SWAP4 SWAP3 SWAP2 SWAP1 DUP2 DUP2 MSTORE PUSH1 0x20 ADD DUP4 DUP4 DUP1 DUP3 DUP5 CALLDATACOPY PUSH1 0x0 DUP2 DUP5 ADD MSTORE PUSH1 0x1F NOT PUSH1 0x1F DUP3 ADD AND SWAP1 POP DUP1 DUP4 ADD SWAP3 POP POP POP POP POP POP POP DUP2 MSTORE PUSH1 0x20 ADD PUSH1 0x0 ISZERO ISZERO DUP2 MSTORE POP SWAP1 POP PUSH2 0x1174 PUSH32 0x22384700E2E6263428CD5916CE61F0375C80149C23F363CBC2F60699323865D8 PUSH1 0x0 SHL PUSH2 0x132D JUMP JUMPDEST PUSH2 0x11A0 PUSH32 0x74D0FEA1E052BC53AC5A07C13EAD4E486D45419425B9EB39486904B2278AC96 PUSH1 0x0 SHL PUSH2 0x132D JUMP JUMPDEST PUSH1 0x1 DUP2 SWAP1 DUP1 PUSH1 0x1 DUP2 SLOAD ADD DUP1 DUP3 SSTORE DUP1 SWAP2 POP POP PUSH1 0x1 SWAP1 SUB SWAP1 PUSH1 0x0 MSTORE PUSH1 0x20 PUSH1 0x0 KECCAK256 SWAP1 PUSH1 0x8 MUL ADD PUSH1 0x0 SWAP1 SWAP2 SWAP1 SWAP2 SWAP1 SWAP2 POP PUSH1 0x0 DUP3 ADD MLOAD DUP2 PUSH1 0x0 ADD PUSH1 0x0 PUSH2 0x100 EXP DUP2 SLOAD DUP2 PUSH20 0xFFFFFFFFFFFFFFFFFFFFFFFFFFFFFFFFFFFFFFFF MUL NOT AND SWAP1 DUP4 PUSH20 0xFFFFFFFFFFFFFFFFFFFFFFFFFFFFFFFFFFFFFFFF AND MUL OR SWAP1 SSTORE POP PUSH1 0x20 DUP3 ADD MLOAD DUP2 PUSH1 0x1 ADD SSTORE PUSH1 0x40 DUP3 ADD MLOAD DUP2 PUSH1 0x2 ADD SSTORE PUSH1 0x60 DUP3 ADD MLOAD DUP2 PUSH1 0x3 ADD SSTORE PUSH1 0x80 DUP3 ADD MLOAD DUP2 PUSH1 0x4 ADD SSTORE PUSH1 0xA0 DUP3 ADD MLOAD DUP2 PUSH1 0x5 ADD SSTORE PUSH1 0xC0 DUP3 ADD MLOAD DUP2 PUSH1 0x6 ADD SWAP1 DUP2 PUSH2 0x125A SWAP2 SWAP1 PUSH2 0x1BEB JUMP JUMPDEST POP PUSH1 0xE0 DUP3 ADD MLOAD DUP2 PUSH1 0x7 ADD PUSH1 0x0 PUSH2 0x100 EXP DUP2 SLOAD DUP2 PUSH1 0xFF MUL NOT AND SWAP1 DUP4 ISZERO ISZERO MUL OR SWAP1 SSTORE POP POP POP PUSH2 0x12A9 PUSH32 0x75CF29B99E572432FA6671D67F7B863581D883E9BD1A8E7E6E32E02690EF820E PUSH1 0x0 SHL PUSH2 0x132D JUMP JUMPDEST PUSH2 0x12D5 PUSH32 0x2951C5397705E84D7A308463DEB8B02D84DA7074C165A8679112B36FBBF13300 PUSH1 0x0 SHL PUSH2 0x132D JUMP JUMPDEST PUSH32 0x5BF34ED94988E5DCDC7D1FAAA54EB1D3B55F45D5F11457E235AFB21A8EBBE73C PUSH1 0x1 DUP1 DUP1 SLOAD SWAP1 POP PUSH2 0x1307 SWAP2 SWAP1 PUSH2 0x1863 JUMP JUMPDEST DUP7 DUP7 DUP11 DUP7 PUSH1 0x40 MLOAD PUSH2 0x131C SWAP6 SWAP5 SWAP4 SWAP3 SWAP2 SWAP1 PUSH2 0x1CF9 JUMP JUMPDEST PUSH1 0x40 MLOAD DUP1 SWAP2 SUB SWAP1 LOG1 POP POP POP POP POP POP POP JUMP JUMPDEST POP JUMP JUMPDEST PUSH1 0x0 DUP1 REVERT JUMPDEST PUSH1 0x0 DUP1 REVERT JUMPDEST PUSH1 0x0 DUP2 SWAP1 POP SWAP2 SWAP1 POP JUMP JUMPDEST PUSH2 0x134D DUP2 PUSH2 0x133A JUMP JUMPDEST DUP2 EQ PUSH2 0x1358 JUMPI PUSH1 0x0 DUP1 REVERT JUMPDEST POP JUMP JUMPDEST PUSH1 0x0 DUP2 CALLDATALOAD SWAP1 POP PUSH2 0x136A DUP2 PUSH2 0x1344 JUMP JUMPDEST SWAP3 SWAP2 POP POP JUMP JUMPDEST PUSH1 0x0 PUSH1 0x20 DUP3 DUP5 SUB SLT ISZERO PUSH2 0x1386 JUMPI PUSH2 0x1385 PUSH2 0x1330 JUMP JUMPDEST JUMPDEST PUSH1 0x0 PUSH2 0x1394 DUP5 DUP3 DUP6 ADD PUSH2 0x135B JUMP JUMPDEST SWAP2 POP POP SWAP3 SWAP2 POP POP JUMP JUMPDEST PUSH1 0x0 PUSH20 0xFFFFFFFFFFFFFFFFFFFFFFFFFFFFFFFFFFFFFFFF DUP3 AND SWAP1 POP SWAP2 SWAP1 POP JUMP JUMPDEST PUSH1 0x0 PUSH2 0x13C8 DUP3 PUSH2 0x139D JUMP JUMPDEST SWAP1 POP SWAP2 SWAP1 POP JUMP JUMPDEST PUSH2 0x13D8 DUP2 PUSH2 0x13BD JUMP JUMPDEST DUP3 MSTORE POP POP JUMP JUMPDEST PUSH2 0x13E7 DUP2 PUSH2 0x133A JUMP JUMPDEST DUP3 MSTORE POP POP JUMP JUMPDEST PUSH1 0x0 DUP2 MLOAD SWAP1 POP SWAP2 SWAP1 POP JUMP JUMPDEST PUSH1 0x0 DUP3 DUP3 MSTORE PUSH1 0x20 DUP3 ADD SWAP1 POP SWAP3 SWAP2 POP POP JUMP JUMPDEST PUSH1 0x0 JUMPDEST DUP4 DUP2 LT ISZERO PUSH2 0x1427 JUMPI DUP1 DUP3 ADD MLOAD DUP2 DUP5 ADD MSTORE PUSH1 0x20 DUP2 ADD SWAP1 POP PUSH2 0x140C JUMP JUMPDEST PUSH1 0x0 DUP5 DUP5 ADD MSTORE POP POP POP POP JUMP JUMPDEST PUSH1 0x0 PUSH1 0x1F NOT PUSH1 0x1F DUP4 ADD AND SWAP1 POP SWAP2 SWAP1 POP JUMP JUMPDEST PUSH1 0x0 PUSH2 0x144F DUP3 PUSH2 0x13ED JUMP JUMPDEST PUSH2 0x1459 DUP2 DUP6 PUSH2 0x13F8 JUMP JUMPDEST SWAP4 POP PUSH2 0x1469 DUP2 DUP6 PUSH1 0x20 DUP7 ADD PUSH2 0x1409 JUMP JUMPDEST PUSH2 0x1472 DUP2 PUSH2 0x1433 JUMP JUMPDEST DUP5 ADD SWAP2 POP POP SWAP3 SWAP2 POP POP JUMP JUMPDEST PUSH1 0x0 DUP2 ISZERO ISZERO SWAP1 POP SWAP2 SWAP1 POP JUMP JUMPDEST PUSH2 0x1492 DUP2 PUSH2 0x147D JUMP JUMPDEST DUP3 MSTORE POP POP JUMP JUMPDEST PUSH1 0x0 PUSH2 0x100 DUP3 ADD SWAP1 POP PUSH2 0x14AE PUSH1 0x0 DUP4 ADD DUP12 PUSH2 0x13CF JUMP JUMPDEST PUSH2 0x14BB PUSH1 0x20 DUP4 ADD DUP11 PUSH2 0x13DE JUMP JUMPDEST PUSH2 0x14C8 PUSH1 0x40 DUP4 ADD DUP10 PUSH2 0x13DE JUMP JUMPDEST PUSH2 0x14D5 PUSH1 0x60 DUP4 ADD DUP9 PUSH2 0x13DE JUMP JUMPDEST PUSH2 0x14E2 PUSH1 0x80 DUP4 ADD DUP8 PUSH2 0x13DE JUMP JUMPDEST PUSH2 0x14EF PUSH1 0xA0 DUP4 ADD DUP7 PUSH2 0x13DE JUMP JUMPDEST DUP2 DUP2 SUB PUSH1 0xC0 DUP4 ADD MSTORE PUSH2 0x1501 DUP2 DUP6 PUSH2 0x1444 JUMP JUMPDEST SWAP1 POP PUSH2 0x1510 PUSH1 0xE0 DUP4 ADD DUP5 PUSH2 0x1489 JUMP JUMPDEST SWAP10 SWAP9 POP POP POP POP POP POP POP POP POP JUMP JUMPDEST PUSH1 0x0 PUSH2 0x1528 DUP3 PUSH2 0x139D JUMP JUMPDEST SWAP1 POP SWAP2 SWAP1 POP JUMP JUMPDEST PUSH2 0x1538 DUP2 PUSH2 0x151D JUMP JUMPDEST DUP3 MSTORE POP POP JUMP JUMPDEST PUSH1 0x0 PUSH1 0x20 DUP3 ADD SWAP1 POP PUSH2 0x1553 PUSH1 0x0 DUP4 ADD DUP5 PUSH2 0x152F JUMP JUMPDEST SWAP3 SWAP2 POP POP JUMP JUMPDEST PUSH1 0x0 PUSH1 0x20 DUP3 ADD SWAP1 POP PUSH2 0x156E PUSH1 0x0 DUP4 ADD DUP5 PUSH2 0x13DE JUMP JUMPDEST SWAP3 SWAP2 POP POP JUMP JUMPDEST PUSH1 0x0 DUP1 REVERT JUMPDEST PUSH1 0x0 DUP1 REVERT JUMPDEST PUSH1 0x0 DUP1 REVERT JUMPDEST PUSH1 0x0 DUP1 DUP4 PUSH1 0x1F DUP5 ADD SLT PUSH2 0x1599 JUMPI PUSH2 0x1598 PUSH2 0x1574 JUMP JUMPDEST JUMPDEST DUP3 CALLDATALOAD SWAP1 POP PUSH8 0xFFFFFFFFFFFFFFFF DUP2 GT ISZERO PUSH2 0x15B6 JUMPI PUSH2 0x15B5 PUSH2 0x1579 JUMP JUMPDEST JUMPDEST PUSH1 0x20 DUP4 ADD SWAP2 POP DUP4 PUSH1 0x1 DUP3 MUL DUP4 ADD GT ISZERO PUSH2 0x15D2 JUMPI PUSH2 0x15D1 PUSH2 0x157E JUMP JUMPDEST JUMPDEST SWAP3 POP SWAP3 SWAP1 POP JUMP JUMPDEST PUSH1 0x0 DUP1 PUSH1 0x0 DUP1 PUSH1 0x0 PUSH1 0x80 DUP7 DUP9 SUB SLT ISZERO PUSH2 0x15F5 JUMPI PUSH2 0x15F4 PUSH2 0x1330 JUMP JUMPDEST JUMPDEST PUSH1 0x0 PUSH2 0x1603 DUP9 DUP3 DUP10 ADD PUSH2 0x135B JUMP JUMPDEST SWAP6 POP POP PUSH1 0x20 PUSH2 0x1614 DUP9 DUP3 DUP10 ADD PUSH2 0x135B JUMP JUMPDEST SWAP5 POP POP PUSH1 0x40 DUP7 ADD CALLDATALOAD PUSH8 0xFFFFFFFFFFFFFFFF DUP2 GT ISZERO PUSH2 0x1635 JUMPI PUSH2 0x1634 PUSH2 0x1335 JUMP JUMPDEST JUMPDEST PUSH2 0x1641 DUP9 DUP3 DUP10 ADD PUSH2 0x1583 JUMP JUMPDEST SWAP4 POP SWAP4 POP POP PUSH1 0x60 PUSH2 0x1654 DUP9 DUP3 DUP10 ADD PUSH2 0x135B JUMP JUMPDEST SWAP2 POP POP SWAP3 SWAP6 POP SWAP3 SWAP6 SWAP1 SWAP4 POP JUMP JUMPDEST PUSH32 0x4E487B7100000000000000000000000000000000000000000000000000000000 PUSH1 0x0 MSTORE PUSH1 0x22 PUSH1 0x4 MSTORE PUSH1 0x24 PUSH1 0x0 REVERT JUMPDEST PUSH1 0x0 PUSH1 0x2 DUP3 DIV SWAP1 POP PUSH1 0x1 DUP3 AND DUP1 PUSH2 0x16A8 JUMPI PUSH1 0x7F DUP3 AND SWAP2 POP JUMPDEST PUSH1 0x20 DUP3 LT DUP2 SUB PUSH2 0x16BB JUMPI PUSH2 0x16BA PUSH2 0x1661 JUMP JUMPDEST JUMPDEST POP SWAP2 SWAP1 POP JUMP JUMPDEST PUSH32 0x4E487B7100000000000000000000000000000000000000000000000000000000 PUSH1 0x0 MSTORE PUSH1 0x32 PUSH1 0x4 MSTORE PUSH1 0x24 PUSH1 0x0 REVERT JUMPDEST PUSH32 0x61756374696F6E206861732073746F7070656400000000000000000000000000 PUSH1 0x0 DUP3 ADD MSTORE POP JUMP JUMPDEST PUSH1 0x0 PUSH2 0x1726 PUSH1 0x13 DUP4 PUSH2 0x13F8 JUMP JUMPDEST SWAP2 POP PUSH2 0x1731 DUP3 PUSH2 0x16F0 JUMP JUMPDEST PUSH1 0x20 DUP3 ADD SWAP1 POP SWAP2 SWAP1 POP JUMP JUMPDEST PUSH1 0x0 PUSH1 0x20 DUP3 ADD SWAP1 POP DUP2 DUP2 SUB PUSH1 0x0 DUP4 ADD MSTORE PUSH2 0x1755 DUP2 PUSH2 0x1719 JUMP JUMPDEST SWAP1 POP SWAP2 SWAP1 POP JUMP JUMPDEST PUSH32 0x656E646564000000000000000000000000000000000000000000000000000000 PUSH1 0x0 DUP3 ADD MSTORE POP JUMP JUMPDEST PUSH1 0x0 PUSH2 0x1792 PUSH1 0x5 DUP4 PUSH2 0x13F8 JUMP JUMPDEST SWAP2 POP PUSH2 0x179D DUP3 PUSH2 0x175C JUMP JUMPDEST PUSH1 0x20 DUP3 ADD SWAP1 POP SWAP2 SWAP1 POP JUMP JUMPDEST PUSH1 0x0 PUSH1 0x20 DUP3 ADD SWAP1 POP DUP2 DUP2 SUB PUSH1 0x0 DUP4 ADD MSTORE PUSH2 0x17C1 DUP2 PUSH2 0x1785 JUMP JUMPDEST SWAP1 POP SWAP2 SWAP1 POP JUMP JUMPDEST PUSH32 0x6E6F7420656E6F756768206D6F6E657900000000000000000000000000000000 PUSH1 0x0 DUP3 ADD MSTORE POP JUMP JUMPDEST PUSH1 0x0 PUSH2 0x17FE PUSH1 0x10 DUP4 PUSH2 0x13F8 JUMP JUMPDEST SWAP2 POP PUSH2 0x1809 DUP3 PUSH2 0x17C8 JUMP JUMPDEST PUSH1 0x20 DUP3 ADD SWAP1 POP SWAP2 SWAP1 POP JUMP JUMPDEST PUSH1 0x0 PUSH1 0x20 DUP3 ADD SWAP1 POP DUP2 DUP2 SUB PUSH1 0x0 DUP4 ADD MSTORE PUSH2 0x182D DUP2 PUSH2 0x17F1 JUMP JUMPDEST SWAP1 POP SWAP2 SWAP1 POP JUMP JUMPDEST PUSH32 0x4E487B7100000000000000000000000000000000000000000000000000000000 PUSH1 0x0 MSTORE PUSH1 0x11 PUSH1 0x4 MSTORE PUSH1 0x24 PUSH1 0x0 REVERT JUMPDEST PUSH1 0x0 PUSH2 0x186E DUP3 PUSH2 0x133A JUMP JUMPDEST SWAP2 POP PUSH2 0x1879 DUP4 PUSH2 0x133A JUMP JUMPDEST SWAP3 POP DUP3 DUP3 SUB SWAP1 POP DUP2 DUP2 GT ISZERO PUSH2 0x1891 JUMPI PUSH2 0x1890 PUSH2 0x1834 JUMP JUMPDEST JUMPDEST SWAP3 SWAP2 POP POP JUMP JUMPDEST PUSH1 0x0 PUSH2 0x18A2 DUP3 PUSH2 0x133A JUMP JUMPDEST SWAP2 POP PUSH2 0x18AD DUP4 PUSH2 0x133A JUMP JUMPDEST SWAP3 POP DUP3 DUP3 MUL PUSH2 0x18BB DUP2 PUSH2 0x133A JUMP JUMPDEST SWAP2 POP DUP3 DUP3 DIV DUP5 EQ DUP4 ISZERO OR PUSH2 0x18D2 JUMPI PUSH2 0x18D1 PUSH2 0x1834 JUMP JUMPDEST JUMPDEST POP SWAP3 SWAP2 POP POP JUMP JUMPDEST PUSH32 0x4E487B7100000000000000000000000000000000000000000000000000000000 PUSH1 0x0 MSTORE PUSH1 0x12 PUSH1 0x4 MSTORE PUSH1 0x24 PUSH1 0x0 REVERT JUMPDEST PUSH1 0x0 PUSH2 0x1913 DUP3 PUSH2 0x133A JUMP JUMPDEST SWAP2 POP PUSH2 0x191E DUP4 PUSH2 0x133A JUMP JUMPDEST SWAP3 POP DUP3 PUSH2 0x192E JUMPI PUSH2 0x192D PUSH2 0x18D9 JUMP JUMPDEST JUMPDEST DUP3 DUP3 DIV SWAP1 POP SWAP3 SWAP2 POP POP JUMP JUMPDEST PUSH1 0x0 PUSH1 0x60 DUP3 ADD SWAP1 POP PUSH2 0x194E PUSH1 0x0 DUP4 ADD DUP7 PUSH2 0x13DE JUMP JUMPDEST PUSH2 0x195B PUSH1 0x20 DUP4 ADD DUP6 PUSH2 0x13DE JUMP JUMPDEST PUSH2 0x1968 PUSH1 0x40 DUP4 ADD DUP5 PUSH2 0x152F JUMP JUMPDEST SWAP5 SWAP4 POP POP POP POP JUMP JUMPDEST PUSH32 0x696E636F7272656374207374617274696E672070726963650000000000000000 PUSH1 0x0 DUP3 ADD MSTORE POP JUMP JUMPDEST PUSH1 0x0 PUSH2 0x19A6 PUSH1 0x18 DUP4 PUSH2 0x13F8 JUMP JUMPDEST SWAP2 POP PUSH2 0x19B1 DUP3 PUSH2 0x1970 JUMP JUMPDEST PUSH1 0x20 DUP3 ADD SWAP1 POP SWAP2 SWAP1 POP JUMP JUMPDEST PUSH1 0x0 PUSH1 0x20 DUP3 ADD SWAP1 POP DUP2 DUP2 SUB PUSH1 0x0 DUP4 ADD MSTORE PUSH2 0x19D5 DUP2 PUSH2 0x1999 JUMP JUMPDEST SWAP1 POP SWAP2 SWAP1 POP JUMP JUMPDEST PUSH1 0x0 PUSH2 0x19E7 DUP3 PUSH2 0x133A JUMP JUMPDEST SWAP2 POP PUSH2 0x19F2 DUP4 PUSH2 0x133A JUMP JUMPDEST SWAP3 POP DUP3 DUP3 ADD SWAP1 POP DUP1 DUP3 GT ISZERO PUSH2 0x1A0A JUMPI PUSH2 0x1A09 PUSH2 0x1834 JUMP JUMPDEST JUMPDEST SWAP3 SWAP2 POP POP JUMP JUMPDEST PUSH32 0x4E487B7100000000000000000000000000000000000000000000000000000000 PUSH1 0x0 MSTORE PUSH1 0x41 PUSH1 0x4 MSTORE PUSH1 0x24 PUSH1 0x0 REVERT JUMPDEST PUSH1 0x0 DUP2 SWAP1 POP DUP2 PUSH1 0x0 MSTORE PUSH1 0x20 PUSH1 0x0 KECCAK256 SWAP1 POP SWAP2 SWAP1 POP JUMP JUMPDEST PUSH1 0x0 PUSH1 0x20 PUSH1 0x1F DUP4 ADD DIV SWAP1 POP SWAP2 SWAP1 POP JUMP JUMPDEST PUSH1 0x0 DUP3 DUP3 SHL SWAP1 POP SWAP3 SWAP2 POP POP JUMP JUMPDEST PUSH1 0x0 PUSH1 0x8 DUP4 MUL PUSH2 0x1AA1 PUSH32 0xFFFFFFFFFFFFFFFFFFFFFFFFFFFFFFFFFFFFFFFFFFFFFFFFFFFFFFFFFFFFFFFF DUP3 PUSH2 0x1A64 JUMP JUMPDEST PUSH2 0x1AAB DUP7 DUP4 PUSH2 0x1A64 JUMP JUMPDEST SWAP6 POP DUP1 NOT DUP5 AND SWAP4 POP DUP1 DUP7 AND DUP5 OR SWAP3 POP POP POP SWAP4 SWAP3 POP POP POP JUMP JUMPDEST PUSH1 0x0 DUP2 SWAP1 POP SWAP2 SWAP1 POP JUMP JUMPDEST PUSH1 0x0 PUSH2 0x1AE8 PUSH2 0x1AE3 PUSH2 0x1ADE DUP5 PUSH2 0x133A JUMP JUMPDEST PUSH2 0x1AC3 JUMP JUMPDEST PUSH2 0x133A JUMP JUMPDEST SWAP1 POP SWAP2 SWAP1 POP JUMP JUMPDEST PUSH1 0x0 DUP2 SWAP1 POP SWAP2 SWAP1 POP JUMP JUMPDEST PUSH2 0x1B02 DUP4 PUSH2 0x1ACD JUMP JUMPDEST PUSH2 0x1B16 PUSH2 0x1B0E DUP3 PUSH2 0x1AEF JUMP JUMPDEST DUP5 DUP5 SLOAD PUSH2 0x1A71 JUMP JUMPDEST DUP3 SSTORE POP POP POP POP JUMP JUMPDEST PUSH1 0x0 SWAP1 JUMP JUMPDEST PUSH2 0x1B2B PUSH2 0x1B1E JUMP JUMPDEST PUSH2 0x1B36 DUP2 DUP5 DUP5 PUSH2 0x1AF9 JUMP JUMPDEST POP POP POP JUMP JUMPDEST JUMPDEST DUP2 DUP2 LT ISZERO PUSH2 0x1B5A JUMPI PUSH2 0x1B4F PUSH1 0x0 DUP3 PUSH2 0x1B23 JUMP JUMPDEST PUSH1 0x1 DUP2 ADD SWAP1 POP PUSH2 0x1B3C JUMP JUMPDEST POP POP JUMP JUMPDEST PUSH1 0x1F DUP3 GT ISZERO PUSH2 0x1B9F JUMPI PUSH2 0x1B70 DUP2 PUSH2 0x1A3F JUMP JUMPDEST PUSH2 0x1B79 DUP5 PUSH2 0x1A54 JUMP JUMPDEST DUP2 ADD PUSH1 0x20 DUP6 LT ISZERO PUSH2 0x1B88 JUMPI DUP2 SWAP1 POP JUMPDEST PUSH2 0x1B9C PUSH2 0x1B94 DUP6 PUSH2 0x1A54 JUMP JUMPDEST DUP4 ADD DUP3 PUSH2 0x1B3B JUMP JUMPDEST POP POP JUMPDEST POP POP POP JUMP JUMPDEST PUSH1 0x0 DUP3 DUP3 SHR SWAP1 POP SWAP3 SWAP2 POP POP JUMP JUMPDEST PUSH1 0x0 PUSH2 0x1BC2 PUSH1 0x0 NOT DUP5 PUSH1 0x8 MUL PUSH2 0x1BA4 JUMP JUMPDEST NOT DUP1 DUP4 AND SWAP2 POP POP SWAP3 SWAP2 POP POP JUMP JUMPDEST PUSH1 0x0 PUSH2 0x1BDB DUP4 DUP4 PUSH2 0x1BB1 JUMP JUMPDEST SWAP2 POP DUP3 PUSH1 0x2 MUL DUP3 OR SWAP1 POP SWAP3 SWAP2 POP POP JUMP JUMPDEST PUSH2 0x1BF4 DUP3 PUSH2 0x13ED JUMP JUMPDEST PUSH8 0xFFFFFFFFFFFFFFFF DUP2 GT ISZERO PUSH2 0x1C0D JUMPI PUSH2 0x1C0C PUSH2 0x1A10 JUMP JUMPDEST JUMPDEST PUSH2 0x1C17 DUP3 SLOAD PUSH2 0x1690 JUMP JUMPDEST PUSH2 0x1C22 DUP3 DUP3 DUP6 PUSH2 0x1B5E JUMP JUMPDEST PUSH1 0x0 PUSH1 0x20 SWAP1 POP PUSH1 0x1F DUP4 GT PUSH1 0x1 DUP2 EQ PUSH2 0x1C55 JUMPI PUSH1 0x0 DUP5 ISZERO PUSH2 0x1C43 JUMPI DUP3 DUP8 ADD MLOAD SWAP1 POP JUMPDEST PUSH2 0x1C4D DUP6 DUP3 PUSH2 0x1BCF JUMP JUMPDEST DUP7 SSTORE POP PUSH2 0x1CB5 JUMP JUMPDEST PUSH1 0x1F NOT DUP5 AND PUSH2 0x1C63 DUP7 PUSH2 0x1A3F JUMP JUMPDEST PUSH1 0x0 JUMPDEST DUP3 DUP2 LT ISZERO PUSH2 0x1C8B JUMPI DUP5 DUP10 ADD MLOAD DUP3 SSTORE PUSH1 0x1 DUP3 ADD SWAP2 POP PUSH1 0x20 DUP6 ADD SWAP5 POP PUSH1 0x20 DUP2 ADD SWAP1 POP PUSH2 0x1C66 JUMP JUMPDEST DUP7 DUP4 LT ISZERO PUSH2 0x1CA8 JUMPI DUP5 DUP10 ADD MLOAD PUSH2 0x1CA4 PUSH1 0x1F DUP10 AND DUP3 PUSH2 0x1BB1 JUMP JUMPDEST DUP4 SSTORE POP JUMPDEST PUSH1 0x1 PUSH1 0x2 DUP9 MUL ADD DUP9 SSTORE POP POP POP JUMPDEST POP POP POP POP POP POP JUMP JUMPDEST DUP3 DUP2 DUP4 CALLDATACOPY PUSH1 0x0 DUP4 DUP4 ADD MSTORE POP POP POP JUMP JUMPDEST PUSH1 0x0 PUSH2 0x1CD8 DUP4 DUP6 PUSH2 0x13F8 JUMP JUMPDEST SWAP4 POP PUSH2 0x1CE5 DUP4 DUP6 DUP5 PUSH2 0x1CBD JUMP JUMPDEST PUSH2 0x1CEE DUP4 PUSH2 0x1433 JUMP JUMPDEST DUP5 ADD SWAP1 POP SWAP4 SWAP3 POP POP POP JUMP JUMPDEST PUSH1 0x0 PUSH1 0x80 DUP3 ADD SWAP1 POP PUSH2 0x1D0E PUSH1 0x0 DUP4 ADD DUP9 PUSH2 0x13DE JUMP JUMPDEST DUP2 DUP2 SUB PUSH1 0x20 DUP4 ADD MSTORE PUSH2 0x1D21 DUP2 DUP7 DUP9 PUSH2 0x1CCC JUMP JUMPDEST SWAP1 POP PUSH2 0x1D30 PUSH1 0x40 DUP4 ADD DUP6 PUSH2 0x13DE JUMP JUMPDEST PUSH2 0x1D3D PUSH1 0x60 DUP4 ADD DUP5 PUSH2 0x13DE JUMP JUMPDEST SWAP7 SWAP6 POP POP POP POP POP POP JUMP INVALID LOG2 PUSH5 0x6970667358 0x22 SLT KECCAK256 PC 0xB8 0xC2 DUP1 0xBD PUSH14 0x5B508FFC88FCF48430131E8521D7 0xB7 BASEFEE LOG4 0x49 0xD3 0xE1 0xD0 0xE2 0xA7 PREVRANDAO SWAP4 DUP3 PUSH5 0x736F6C6343 STOP ADDMOD SGT STOP CALLER "},"methodIdentifiers":{"auctions(uint256)":"571a26a0","buy(uint256)":"d96a094a","createAuction(uint256,uint256,string,uint256)":"e9835d15","getPrice(uint256)":"e7572230","owner()":"8da5cb5b"}}}}}