{
  "_format": "hh-sol-artifact-1",
  "contractName": "AuctionEngine",
  "sourceName": "contracts/AuctionEngine.sol",
  "abi": [
    {
      "inputs": [],
      "stateMutability": "nonpayable",
      "type": "constructor"
    },
    {
      "anonymous": false,
      "inputs": [
        {
          "indexed": false,
          "internalType": "uint256",
          "name": "index",
          "type": "uint256"
        },
        {
          "indexed": false,
          "internalType": "string",
          "name": "itemName",
          "type": "string"
        },
        {
          "indexed": false,
          "internalType": "uint256",
          "name": "startingPrice",
          "type": "uint256"
        },
        {
          "indexed": false,
          "internalType": "uint256",
          "name": "duration",
          "type": "uint256"
        }
      ],
      "name": "AuctionCreated",
      "type": "event"
    },
    {
      "anonymous": false,
      "inputs": [
        {
          "indexed": false,
          "internalType": "uint256",
          "name": "index",
          "type": "uint256"
        },
        {
          "indexed": false,
          "internalType": "uint256",
          "name": "finalPrice",
          "type": "uint256"
        },
        {
          "indexed": false,
          "internalType": "address",
          "name": "buyer",
          "type": "address"
        }
      ],
      "name": "AuctionEnded",
      "type": "event"
    },
    {
      "inputs": [
        {
          "internalType": "uint256",
          "name": "",
          "type": "uint256"
        }
      ],
      "name": "auctions",
      "outputs": [
        {
          "internalType": "address payable",
          "name": "seller",
          "type": "address"
        },
        {
          "internalType": "uint256",
          "name": "startingPrice",
          "type": "uint256"
        },
        {
          "internalType": "uint256",
          "name": "finalPrice",
          "type": "uint256"
        },
        {
          "internalType": "uint256",
          "name": "startAt",
          "type": "uint256"
        },
        {
          "internalType": "uint256",
          "name": "endsAt",
          "type": "uint256"
        },
        {
          "internalType": "uint256",
          "name": "discountRate",
          "type": "uint256"
        },
        {
          "internalType": "string",
          "name": "item",
          "type": "string"
        },
        {
          "internalType": "bool",
          "name": "stopped",
          "type": "bool"
        }
      ],
      "stateMutability": "view",
      "type": "function"
    },
    {
      "inputs": [
        {
          "internalType": "uint256",
          "name": "index",
          "type": "uint256"
        }
      ],
      "name": "buy",
      "outputs": [],
      "stateMutability": "payable",
      "type": "function"
    },
    {
      "inputs": [
        {
          "internalType": "uint256",
          "name": "_startingPrice",
          "type": "uint256"
        },
        {
          "internalType": "uint256",
          "name": "_discountRate",
          "type": "uint256"
        },
        {
          "internalType": "string",
          "name": "_item",
          "type": "string"
        },
        {
          "internalType": "uint256",
          "name": "_duration",
          "type": "uint256"
        }
      ],
      "name": "createAuction",
      "outputs": [],
      "stateMutability": "nonpayable",
      "type": "function"
    },
    {
      "inputs": [
        {
          "internalType": "uint256",
          "name": "index",
          "type": "uint256"
        }
      ],
      "name": "getPrice",
      "outputs": [
        {
          "internalType": "uint256",
          "name": "",
          "type": "uint256"
        }
      ],
      "stateMutability": "view",
      "type": "function"
    },
    {
      "inputs": [],
      "name": "owner",
      "outputs": [
        {
          "internalType": "address",
          "name": "",
          "type": "address"
        }
      ],
      "stateMutability": "view",
      "type": "function"
    }
  ],
  "bytecode": "0x60806040523480156200001157600080fd5b50620000467f2f931546572529480fbf21ffbd047f0b15e4e1c9be57adc7e577c1a183d4872260001b620000f460201b60201c565b6200007a7feb5fad38bafa38f2f542de9471378365e92a7b6cbf425e5f0bbd345e1b9850c960001b620000f460201b60201c565b620000ae7fddbf2a4e1c94999f99ab9df5e90b57e8387df9cb074d7ef5761f887aee8ed5f560001b620000f460201b60201c565b336000806101000a81548173ffffffffffffffffffffffffffffffffffffffff021916908373ffffffffffffffffffffffffffffffffffffffff160217905550620000f7565b50565b611d7d80620001076000396000f3fe60806040526004361061004a5760003560e01c8063571a26a01461004f5780638da5cb5b14610093578063d96a094a146100be578063e7572230146100da578063e9835d1514610117575b600080fd5b34801561005b57600080fd5b5061007660048036038101906100719190611370565b610140565b60405161008a989796959493929190611498565b60405180910390f35b34801561009f57600080fd5b506100a861024d565b6040516100b5919061153e565b60405180910390f35b6100d860048036038101906100d39190611370565b610271565b005b3480156100e657600080fd5b5061010160048036038101906100fc9190611370565b610a86565b60405161010e9190611559565b60405180910390f35b34801561012357600080fd5b5061013e600480360381019061013991906115d9565b610eb2565b005b6001818154811061015057600080fd5b90600052602060002090600802016000915090508060000160009054906101000a900473ffffffffffffffffffffffffffffffffffffffff16908060010154908060020154908060030154908060040154908060050154908060060180546101b790611690565b80601f01602080910402602001604051908101604052809291908181526020018280546101e390611690565b80156102305780601f1061020557610100808354040283529160200191610230565b820191906000526020600020905b81548152906001019060200180831161021357829003601f168201915b5050505050908060070160009054906101000a900460ff16905088565b60008054906101000a900473ffffffffffffffffffffffffffffffffffffffff1681565b61029d7f4e434269b0372f46ed26d3b778ab007fe1b8882515fff781f8a8ccffad8c85ac60001b61132d565b6102c97fdfa7c79c014eeb1304b608d02fed166a650ca18183a40639d00d77073fe7416560001b61132d565b6102f57f29e69bf22108309540cbf5df8c41ea7db3d4b4f6370c18108f71efa55b29f5d360001b61132d565b60006001828154811061030b5761030a6116c1565b5b906000526020600020906008020190506103477f29b10f8907c55ad6cb4ab020a92dbcb64a13dec347c447ff462ad56705b1bdb760001b61132d565b6103737f2652615ccc5596c047efd356fc7d441e9e9fcfffb46d9de229f6d43a9917f70560001b61132d565b61039f7f0e8799bb849628d915c12f7902ef53faa76b17dbd4a31b0b4f127f2487200c6760001b61132d565b8060070160009054906101000a900460ff16156103f1576040517f08c379a00000000000000000000000000000000000000000000000000000000081526004016103e89061173c565b60405180910390fd5b61041d7f98f22c14c59c5e271dae12d6dfb87ab273f908b8124ddcbaf37ecbeef50c029860001b61132d565b6104497f446a6a420c64836a558b6e19e35a267bb67bc75c776a93cbc15938a2b893783260001b61132d565b6104757ffd9f7588f7ff7589a9c518272f9a0b9312499cdf3466147739e9f081e66b37df60001b61132d565b6104a17f7bbbef4eb5caff67e730e5922645a6f239f3647c5769b3b6b8ef03e68dae55a160001b61132d565b806004015442106104e7576040517f08c379a00000000000000000000000000000000000000000000000000000000081526004016104de906117a8565b60405180910390fd5b6105137ff2bfe8cb33e385bb772afecfc35aade736ba592a78eb11cc6a4d539294578a9b60001b61132d565b61053f7f7b701c74a5263d65e368f7f93ec29dc080101a00963714aa83c4913367c0530f60001b61132d565b61056b7f6a46686fd7036190771258be5551048dac5845dabc915e8a3a1b399233439e7c60001b61132d565b600061057683610a86565b90506105a47f0a06c7fe808da782360d657f4071bf36677873ab681d2e379e75dd603675914b60001b61132d565b6105d07f2d2de37eae7c48523b0d4e12991144d54d0122137404feede0578e8fb1dc956760001b61132d565b6105fc7f91ced6ed60444e82c62680aa4970fc5dc0d465970025ec014233bed64bb8beac60001b61132d565b8034101561063f576040517f08c379a000000000000000000000000000000000000000000000000000000000815260040161063690611814565b60405180910390fd5b61066b7f7c4a01b1437764b6319375885de8fc836ebfd7310843a01628e72946f4d8542760001b61132d565b6106977fcb0472756418f15d3e27dcaa8c8842eb660233fb8bcb73d515cf8a91e982a25960001b61132d565b6106c37f0c19d45d3859d4cf5e1374dbe04413573316f6c7b7a9cd8a264f58014d616d7960001b61132d565b60018260070160006101000a81548160ff02191690831515021790555061070c7fe50fc0aa2dec1b8719c9edeb7614112655a6aeacd4a00a14428c8f3611f9d94060001b61132d565b6107387fbc0d0fe0b3f3a7c203c27af50738e54cfad6f8d7dd9e77a046ea343a4ad4ad7760001b61132d565b80826002018190555061076d7f26ce1411cf20d68caf1aa692e5d1571f79ccc0ce9510d5387d9cd740ff0f4ee460001b61132d565b6107997ff0cd41ada4a8f52deff7370cb7b95a3609f087b1ec37b8f0cdf4c1c43a5b0dda60001b61132d565b600081346107a79190611863565b90506107d57f92bdf0f73426482a895cee8d0460d75bc487168ead92e6a82bf0710c2e490f3b60001b61132d565b6108017fd265cec6b6f69ee5ddf20edc38814f39f865ffac178cafb3e7da4d813f8bc6d960001b61132d565b60008111156108da576108367f4d03a1f2b45bc0e88baefe51f9d0c55468862a3f1d090c9e55d101f710bdbf4e60001b61132d565b6108627f9245f14802108f616b38ce8360b6b596ee27a34ec704b6950a540838004d938860001b61132d565b61088e7fa80c824b969077f2586e73ae78719eef004d6999db9f3ac6f76fdd83f1c5934160001b61132d565b3373ffffffffffffffffffffffffffffffffffffffff166108fc829081150290604051600060405180830381858888f193505050501580156108d4573d6000803e3d6000fd5b50610907565b6109067fac124cdabde6ecebd530615e5f9119ba9278a5159aaff477f4525e95a07c403860001b61132d565b5b6109337fc2460c92f31e1cb947a7e2f6c08a5db96e8a08846275f5eb3c0d7485f2af334260001b61132d565b61095f7f988d71b73d12f1d1bce7734bf4b635f0f5ddd22bc4268d63dd89debf6afb643c60001b61132d565b8260000160009054906101000a900473ffffffffffffffffffffffffffffffffffffffff1673ffffffffffffffffffffffffffffffffffffffff166108fc6064600a856109ac9190611897565b6109b69190611908565b846109c19190611863565b9081150290604051600060405180830381858888f193505050501580156109ec573d6000803e3d6000fd5b50610a197f058adbd9194ba68e86bf8ac85b733f4db444176a5655aafc7dbd7f95156816cf60001b61132d565b610a457f9d51177ad57e8e538847a8e16865375193d3cb7b4e8ed6946b11dca664ba429360001b61132d565b7fbafc4bda865d4d1f8d5b16f883e996fde0fe71112fac81503876d35375694400848333604051610a7893929190611939565b60405180910390a150505050565b6000610ab47faf9e706135e42ba205632d498d18e07a336b75685ee380bcba6870962209a1b860001b61132d565b610ae07f4cc0e869026f6c805b8c91d4172e9c8787fbda1eec685d5ebeb89adfc0d73da960001b61132d565b610b0c7f92c5a08dc3bb6e9710301d6c8d2d29fcc767e38431dce083fb58f684a5987e3160001b61132d565b600060018381548110610b2257610b216116c1565b5b9060005260206000209060080201604051806101000160405290816000820160009054906101000a900473ffffffffffffffffffffffffffffffffffffffff1673ffffffffffffffffffffffffffffffffffffffff1673ffffffffffffffffffffffffffffffffffffffff1681526020016001820154815260200160028201548152602001600382015481526020016004820154815260200160058201548152602001600682018054610bd490611690565b80601f0160208091040260200160405190810160405280929190818152602001828054610c0090611690565b8015610c4d5780601f10610c2257610100808354040283529160200191610c4d565b820191906000526020600020905b815481529060010190602001808311610c3057829003601f168201915b505050505081526020016007820160009054906101000a900460ff1615151515815250509050610c9f7ff1ce3f0d734c499f9abe6a89d1039ec5aed10af4b971bb33eb1c7436cf79007160001b61132d565b610ccb7fa420c6b9c4cc6794f4ab59462bf2760d0ec45961fcc51ab8ada7da510bff07b860001b61132d565b610cf77ff21bfd8261e780749bbc052493223117754c04a7e8cc125fddaeeb8b42b5531960001b61132d565b8060e0015115610d3c576040517f08c379a0000000000000000000000000000000000000000000000000000000008152600401610d339061173c565b60405180910390fd5b610d687f7de9ab5f3df2f400161690b58c3eb16ef15b47272ee5f652cd32b49f59c1862360001b61132d565b610d947fa3a803bc6f4e3e8124acf60c4caab1b424c304b64330d74d70b0bfe67da7f24760001b61132d565b610dc07fd543fce3371561f109c3d5344b9be8b5afb67361add7e5debde3b1fbb71a284260001b61132d565b6000816060015142610dd29190611863565b9050610e007f91984394b5bc42faee6b4f2359e2f8d4ae6a9737c9d1afa2d1420f61c839645f60001b61132d565b610e2c7f8e8b4ffa182d7031a0bad3c7a7f9c3384944320a3b47bfc6547b1904bab4066c60001b61132d565b6000818360a00151610e3e9190611897565b9050610e6c7f23aaa2f021b7acd02fcf74d0fdea661201d1a32f4d0282ea98a1bb75aee0532660001b61132d565b610e987f65bbf01186f8798095731e4a4d0c9ba13908df736ec782ef0cff4a5d2f599ba360001b61132d565b808360200151610ea89190611863565b9350505050919050565b610ede7f9026e3cdb294466185ea08e4e1ed08342571b3f644217a81fee99fdfa25e1fb960001b61132d565b610f0a7fb196ec2e4a7aeb2fde4afd9a6fcdbcc5c11297949d8b4613f5cfab75b2a9ac4f60001b61132d565b610f367f1eae5e863f06f889c7bf7fb5ffbcf63ce953bb81d00356bb0c2cb381dfb9c41b60001b61132d565b6000808214610f455781610f4a565b6202a3005b9050610f787f6b819679383c11f1aa3f0fd8f5c99e5147c4455fa661a9dafe904466b39e763b60001b61132d565b610fa47f82b9c24af1c34dd8970a9b363cb5a80ec100bde8f6bcb5c0af6cc23d1f397eb060001b61132d565b610fd07f7e9db4d0bed9c8eb9ab02580b9a7dfa0db69594c25578a7beb156a289d2cd6e760001b61132d565b8481610fdc9190611897565b86101561101e576040517f08c379a0000000000000000000000000000000000000000000000000000000008152600401611015906119bc565b60405180910390fd5b61104a7f94ab50f41d309f47cb6b6d41e0ba443848d8b281b14f1a7663b98dd6159942ca60001b61132d565b6110767f5920af103494845c4097213637c49a64ce1e95e93eddec6fd1d6e4dbd958f35160001b61132d565b6110a27f35f288f2e325d7fd0497790368823254b14f9c34f38846b35cfa9fdf6585a7cf60001b61132d565b60006040518061010001604052803373ffffffffffffffffffffffffffffffffffffffff16815260200188815260200188815260200142815260200183426110ea91906119dc565b815260200187815260200186868080601f016020809104026020016040519081016040528093929190818152602001838380828437600081840152601f19601f8201169050808301925050505050505081526020016000151581525090506111747f22384700e2e6263428cd5916ce61f0375c80149c23f363cbc2f60699323865d860001b61132d565b6111a07f074d0fea1e052bc53ac5a07c13ead4e486d45419425b9eb39486904b2278ac9660001b61132d565b600181908060018154018082558091505060019003906000526020600020906008020160009091909190915060008201518160000160006101000a81548173ffffffffffffffffffffffffffffffffffffffff021916908373ffffffffffffffffffffffffffffffffffffffff1602179055506020820151816001015560408201518160020155606082015181600301556080820151816004015560a0820151816005015560c082015181600601908161125a9190611beb565b5060e08201518160070160006101000a81548160ff02191690831515021790555050506112a97f75cf29b99e572432fa6671d67f7b863581d883e9bd1a8e7e6e32e02690ef820e60001b61132d565b6112d57f2951c5397705e84d7a308463deb8b02d84da7074c165a8679112b36fbbf1330060001b61132d565b7f5bf34ed94988e5dcdc7d1faaa54eb1d3b55f45d5f11457e235afb21a8ebbe73c600180805490506113079190611863565b86868a8660405161131c959493929190611cf9565b60405180910390a150505050505050565b50565b600080fd5b600080fd5b6000819050919050565b61134d8161133a565b811461135857600080fd5b50565b60008135905061136a81611344565b92915050565b60006020828403121561138657611385611330565b5b60006113948482850161135b565b91505092915050565b600073ffffffffffffffffffffffffffffffffffffffff82169050919050565b60006113c88261139d565b9050919050565b6113d8816113bd565b82525050565b6113e78161133a565b82525050565b600081519050919050565b600082825260208201905092915050565b60005b8381101561142757808201518184015260208101905061140c565b60008484015250505050565b6000601f19601f8301169050919050565b600061144f826113ed565b61145981856113f8565b9350611469818560208601611409565b61147281611433565b840191505092915050565b60008115159050919050565b6114928161147d565b82525050565b6000610100820190506114ae600083018b6113cf565b6114bb602083018a6113de565b6114c860408301896113de565b6114d560608301886113de565b6114e260808301876113de565b6114ef60a08301866113de565b81810360c08301526115018185611444565b905061151060e0830184611489565b9998505050505050505050565b60006115288261139d565b9050919050565b6115388161151d565b82525050565b6000602082019050611553600083018461152f565b92915050565b600060208201905061156e60008301846113de565b92915050565b600080fd5b600080fd5b600080fd5b60008083601f84011261159957611598611574565b5b8235905067ffffffffffffffff8111156115b6576115b5611579565b5b6020830191508360018202830111156115d2576115d161157e565b5b9250929050565b6000806000806000608086880312156115f5576115f4611330565b5b60006116038882890161135b565b95505060206116148882890161135b565b945050604086013567ffffffffffffffff81111561163557611634611335565b5b61164188828901611583565b935093505060606116548882890161135b565b9150509295509295909350565b7f4e487b7100000000000000000000000000000000000000000000000000000000600052602260045260246000fd5b600060028204905060018216806116a857607f821691505b6020821081036116bb576116ba611661565b5b50919050565b7f4e487b7100000000000000000000000000000000000000000000000000000000600052603260045260246000fd5b7f61756374696f6e206861732073746f7070656400000000000000000000000000600082015250565b60006117266013836113f8565b9150611731826116f0565b602082019050919050565b6000602082019050818103600083015261175581611719565b9050919050565b7f656e646564000000000000000000000000000000000000000000000000000000600082015250565b60006117926005836113f8565b915061179d8261175c565b602082019050919050565b600060208201905081810360008301526117c181611785565b9050919050565b7f6e6f7420656e6f756768206d6f6e657900000000000000000000000000000000600082015250565b60006117fe6010836113f8565b9150611809826117c8565b602082019050919050565b6000602082019050818103600083015261182d816117f1565b9050919050565b7f4e487b7100000000000000000000000000000000000000000000000000000000600052601160045260246000fd5b600061186e8261133a565b91506118798361133a565b925082820390508181111561189157611890611834565b5b92915050565b60006118a28261133a565b91506118ad8361133a565b92508282026118bb8161133a565b915082820484148315176118d2576118d1611834565b5b5092915050565b7f4e487b7100000000000000000000000000000000000000000000000000000000600052601260045260246000fd5b60006119138261133a565b915061191e8361133a565b92508261192e5761192d6118d9565b5b828204905092915050565b600060608201905061194e60008301866113de565b61195b60208301856113de565b611968604083018461152f565b949350505050565b7f696e636f7272656374207374617274696e672070726963650000000000000000600082015250565b60006119a66018836113f8565b91506119b182611970565b602082019050919050565b600060208201905081810360008301526119d581611999565b9050919050565b60006119e78261133a565b91506119f28361133a565b9250828201905080821115611a0a57611a09611834565b5b92915050565b7f4e487b7100000000000000000000000000000000000000000000000000000000600052604160045260246000fd5b60008190508160005260206000209050919050565b60006020601f8301049050919050565b600082821b905092915050565b600060088302611aa17fffffffffffffffffffffffffffffffffffffffffffffffffffffffffffffffff82611a64565b611aab8683611a64565b95508019841693508086168417925050509392505050565b6000819050919050565b6000611ae8611ae3611ade8461133a565b611ac3565b61133a565b9050919050565b6000819050919050565b611b0283611acd565b611b16611b0e82611aef565b848454611a71565b825550505050565b600090565b611b2b611b1e565b611b36818484611af9565b505050565b5b81811015611b5a57611b4f600082611b23565b600181019050611b3c565b5050565b601f821115611b9f57611b7081611a3f565b611b7984611a54565b81016020851015611b88578190505b611b9c611b9485611a54565b830182611b3b565b50505b505050565b600082821c905092915050565b6000611bc260001984600802611ba4565b1980831691505092915050565b6000611bdb8383611bb1565b9150826002028217905092915050565b611bf4826113ed565b67ffffffffffffffff811115611c0d57611c0c611a10565b5b611c178254611690565b611c22828285611b5e565b600060209050601f831160018114611c555760008415611c43578287015190505b611c4d8582611bcf565b865550611cb5565b601f198416611c6386611a3f565b60005b82811015611c8b57848901518255600182019150602085019450602081019050611c66565b86831015611ca85784890151611ca4601f891682611bb1565b8355505b6001600288020188555050505b505050505050565b82818337600083830152505050565b6000611cd883856113f8565b9350611ce5838584611cbd565b611cee83611433565b840190509392505050565b6000608082019050611d0e60008301886113de565b8181036020830152611d21818688611ccc565b9050611d3060408301856113de565b611d3d60608301846113de565b969550505050505056fea264697066735822122058b8c280bd6d5b508ffc88fcf48430131e8521d7b748a449d3e1d0e2a744938264736f6c63430008130033",
  "linkReferences": {},
  "deployedLinkReferences": {}
}